:100000000080001071010000E9010000F101000012
:10001000F90100000102000009020000B274FFEFC4
:1000200000000000000000000000000011020000BD
:100030001902000000000000210200002902000057
:1000400031020000310200003102000031020000E4
:1000500031020000310200003102000031020000D4
:1000600031020000B10E0000310200003102000038
:1000700031020000310200003102000031020000B4
:1000800031020000310200003102000031020000A4
:100090003102000031020000310200003102000094
:1000A0003102000031020000310200003102000084
:1000B0003102000031020000310200003102000074
:1000C00031020000310200003102000098240000DB
:1000D00000000010840000009824000000C00720E9
:1000E00000000000840000107401000000C0072020
:1000F0000000000080B489B000AFF860B9607A6099
:10010000BB68FB61FB68BB6100237B610AE0FB69A4
:100110001A1DFA61BA69111DB96112681A607B690A
:1001200004337B617A697B689A42F0D32437BD46F9
:100130005DF8047B704700BF80B485B000AF786085
:1001400039607B68FB600023BB6007E0FB681A1D19
:10015000FA6000221A60BB680433BB60BA683B686F
:100160009A42F3D31437BD465DF8047B704700BF55
:1001700080B584B000AF194BFB6013E0FB681A1D1B
:10018000FA601B68BB60FB681A1DFA601B687B6025
:10019000FB681A1DFA601B683B60B86879683A68AA
:1001A000FFF7A8FFFB680E4A9342E7D30DE0FB6818
:1001B0001A1DFA601B687B60FB681A1DFA601B68D9
:1001C0003B6078683968FFF7B7FFFB68054A9342E0
:1001D000EDD300F0B7FE01F043F9FEE7CC000000DC
:1001E000E4000000F400000080B400AFFEE700BFB0
:1001F00080B400AFFEE700BF80B400AFFEE700BFF1
:1002000080B400AFFEE700BF80B400AFFEE700BFE0
:1002100080B400AFFEE700BF80B400AFFEE700BFD0
:1002200080B400AFFEE700BF80B400AFFEE700BFC0
:1002300080B400AFFEE700BFFFFFFFFFFFFFFFFF3F
:10024000FFFFFFFFFFFFFFFFFFFFFFFFFFFFFFFFBE
:10025000FFFFFFFFFFFFFFFFFFFFFFFFFFFFFFFFAE
:10026000FFFFFFFFFFFFFFFFFFFFFFFFFFFFFFFF9E
:10027000FFFFFFFFFFFFFFFFFFFFFFFFFFFFFFFF8E
:10028000FFFFFFFFFFFFFFFFFFFFFFFFFFFFFFFF7E
:10029000FFFFFFFFFFFFFFFFFFFFFFFFFFFFFFFF6E
:1002A000FFFFFFFFFFFFFFFFFFFFFFFFFFFFFFFF5E
:1002B000FFFFFFFFFFFFFFFFFFFFFFFFFFFFFFFF4E
:1002C000FFFFFFFFFFFFFFFFFFFFFFFFFFFFFFFF3E
:1002D000FFFFFFFFFFFFFFFFFFFFFFFFFFFFFFFF2E
:1002E000FFFFFFFFFFFFFFFFFFFFFFFFFFFFFFFF1E
:1002F000FFFFFFFFFFFFFFFFFFFFFFFFFFFFFFFF0E
:1003000080B483B000AF0346FB71084997F907300A
:100310005B09FA7902F01F02012000FA02F241F8AB
:1003200023200C37BD465DF8047B704700E100E0F8
:1003300080B483B000AF7860084611461A46034681
:10034000FB700B46BB7013467B707B78002B0FD085
:10035000FB785B017A681344FA78520179680A44A1
:100360009169BA78012000FA02F20A439A610EE01C
:10037000FB785B017A681344FA78520179680A4481
:10038000D169BA78012000FA02F20A43DA610C3727
:10039000BD465DF8047B704780B584B000AFF8605F
:1003A000B96011461A460B46FB711346BB71BB6818
:1003B000D9B2FA79BB79F868FFF7BAFF1037BD46B2
:1003C00080BD00BF80B483B000AF78600B46FB7087
:1003D0001346BB70FB785B017A6813445A69BB789B
:1003E00022FA03F303F00103002B14BF01230023BF
:1003F000DBB218460C37BD465DF8047B704700BF82
:1004000080B584B000AFF860B9601346FB71BB687B
:10041000DAB2FB79F86811461A46FFF7D3FF0346B4
:1004200018461037BD4680BD80B483B000AF7860F9
:100430000B46FB701346BB70FB785B017A68134474
:10044000FA78520179680A441168BA78012000FAF2
:1004500002F20A431A600C37BD465DF8047B704710
:1004600080B483B000AF78600B46FB701346BB705E
:10047000FB785B017A681344FA78520179680A4480
:100480001168BA78012000FA02F2D2430A401A60D9
:100490000C37BD465DF8047B704700BF80B582B065
:1004A00000AF7860084611461A460346FB700B46BB
:1004B000BB7013467B707B78002B07D0FA78BB7833
:1004C000786811461A46FFF7AFFF06E0FA78BB7866
:1004D000786811461A46FFF7C3FF0837BD4680BD4E
:1004E00080B582B000AF7860084611461A460346D0
:1004F000FB700B46BB7013467B70F978BA787B783B
:100500007868FFF7CBFF0837BD4680BD80B483B065
:1005100000AF78600B46FB707B681B6897F903207F
:10052000032A05DC97F90320012101FA02F205E014
:1005300097F903200432012101FA02F21340002B43
:1005400014BF01230023DBB218460C37BD465DF80B
:10055000047B704780B483B000AF78600B46FB70BB
:1005600097F90330032B06DC97F90330012202FAD6
:1005700003F31A4606E097F903300433012202FA26
:1005800003F31A467B681A600C37BD465DF8047B9E
:10059000704700BF80B483B000AF78607B685B6851
:1005A00043F001027B685A607B685B6843F0080295
:1005B0007B685A600C37BD465DF8047B704700BF0E
:1005C00080B483B000AF786039607B683A68DA60E5
:1005D0000C37BD465DF8047B704700BF80B485B022
:1005E00000AFF8600B467A60FB7297F90B30062B70
:1005F0002CD801A252F823F0150600001D060000B9
:10060000250600002D060000350600003D0600000E
:1006100045060000FB687A689A6118E0FB687A6812
:10062000DA6114E0FB687A681A6210E0FB687A68A5
:100630005A620CE0FB687A681A6408E0FB687A6822
:100640005A6404E0FB687A689A6400E000BF1437DB
:10065000BD465DF8047B704780B483B000AF78601E
:100660000B46FB707B685B69FA7802F00702510069
:10067000FA7802F007020A44012101FA02F21A4351
:100680007B685A610C37BD465DF8047B704700BF3C
:1006900080B483B000AF78600B46FB707B6859690B
:1006A00097F9032013465B0013440133012202FA39
:1006B00003F341EA03027B685A610C37BD465DF8DB
:1006C000047B704780B483B000AF78600B46FB704A
:1006D0007B68596997F9032013465B001344013383
:1006E000012202FA03F3DB4301EA03027B685A6149
:1006F0000C37BD465DF8047B704700BF80B483B003
:1007000000AF78600B46FB707B68596997F903204E
:1007100013465B0013440233012202FA03F3DB4366
:1007200001EA03027B685A610C37BD465DF8047B21
:10073000704700BF80B500AF1B480021FFF740FFA6
:10074000194800214FF47A72FFF748FF164800213C
:10075000FFF782FF14480021FFF79AFF124800219B
:10076000FFF7CCFF104805210022002300F0E0FC39
:100770000D4805210522FFF731FF0B480521FFF742
:100780006BFF09480521FFF79DFF07480521FFF78B
:10079000B5FF054800F0B0FC0348FFF7FBFE092059
:1007A000FFF7AEFD80BD00BF0080014080B500AF07
:1007B0002D48012118220123FFF792FE2A4801212A
:1007C0001A220123FFF78CFE27480121152201235D
:1007D000FFF786FE2448012117220123FFF780FE40
:1007E0002148012112220123FFF77AFE1E48012130
:1007F00014220123FFF774FE1B4801211A22002353
:10080000FFF7CAFD1848012115220123FFF7C4FD97
:100810001548012117220023FFF7BEFD12480121D0
:1008200012220123FFF7B8FD0F48012114220023F3
:10083000FFF7B2FD0C48012118220123FFF7ACFDA0
:100840000948012113220023FFF74AFE064801212F
:1008500016220023FFF744FE03480121192200233A
:10086000FFF73EFE80BD00BF00C0092080B582B00A
:1008700000AF0023FB710023BB7100237B71FF23BA
:100880003B7100F0EDF8FFF791FFFFF753FF42488F
:1008900000211222FFF7B4FD034683F00103DBB20F
:1008A000002B17D03C4800210122FFF7A9FD034689
:1008B00083F00103DBB2002B0CD000F0D1F8002351
:1008C000FB710023BB7100237B71FF233B71334B12
:1008D000334A1A60304800211222FFF791FD034687
:1008E00083F00103DBB2002B18D02C4B1B68002BCC
:1008F00014D1BB79002B04D100F0F6F80123FB7171
:1009000009E0284B1B88142B05D9264B1B88053B77
:100910009AB2244B1A80214B214A1A601E480021AA
:100920000122FFF76DFD034683F00103DBB2002BCC
:1009300014D01A4B1B68002B10D11A4B1B88B3F52F
:10094000757F08D2BB79012B05D1164B1B88053367
:100950009AB2144B1A80114B114A1A600F4B1B6844
:10096000002B04D00D4B1B68013B0C4A13607B79B4
:10097000002B0ED10C4B1B681A460C4B1B689A427D
:1009800009D8FB79002B06D000F0A6F90123BB7132
:100990007DE700F00DF87AE700C0092000000010A4
:1009A000A0860100A0000010A40000108400001028
:1009B00080B500AF254B1A68254B1B68DBB2254874
:1009C00011461A46FFF71CFD03461A46224B1A70C1
:1009D0001E4B5A681E4B5B68DBB21E4811461A4616
:1009E000FFF70EFD03461A461B4B5A70174B9A68C9
:1009F000174B9B68DBB2174811461A46FFF700FDFC
:100A000003461A46144B9A70144B1B78DAB2124BF9
:100A10001B78DBB29A4202D000F05EF914E00F4B73
:100A20005B78DAB20C4B5B78DBB29A4202D000F012
:100A300053F909E0094B9B78DAB2074B9B78DBB29C
:100A40009A4201D000F048F980BD00BF5800001064
:100A50006400001000C009208C00001090000010FD
:100A600080B500AF1A4B5B681A4A1360184BDB68FD
:100A7000184601F04FFC03469AB2174B1A80164BEA
:100A80001A88164B1A80164801211A220023FFF7F4
:100A900083FC1348012115220123FFF77DFC104838
:100AA000012117220023FFF777FC0D4801211222B4
:100AB0000123FFF771FC0A48012114220023FFF7EC
:100AC0006BFC0748012118220123FFF765FC80BD5C
:100AD00070000010A4000010A0000010A80000107A
:100AE00000C0092000000000B0B586B000AF0123AF
:100AF0003B61714B00221A6000F0EEF800BF6F4BB3
:100B00001B6846F2A7129342F9D909E000BF6C4B6B
:100B10001B681A46694B1B689A42F8D800F0DCF84B
:100B2000654B1B68022BF1DD664B1A69654BDB6870
:100B30001046194601F01EFB0346FB60614B5B68E3
:100B4000184601F06FFA02460B464FF000005E496E
:100B500000F0C8FF02460B461046194601F0F0F9B6
:100B60000346BB60574B9B68184601F05BFA024690
:100B70000B464FF00000544900F0B4FF02460B460C
:100B800014461D46B86801F0E1FB02460B462046BC
:100B9000294601F04FF802460B461046194601F06F
:100BA000CFF903467B60444B00221A6001233B616E
:100BB00064E000BF424B1B681A46404B1B689A42D8
:100BC000F8D800F089F83F4B1B681A463B69B3FB25
:100BD000F2F3184601F0B2FB03467B6178694FF0EF
:100BE0007E5101F0D1FB0346002B02D04FF07E5323
:100BF0007B61344B1C697869F96801F05BFA034644
:100C00002046194601F0B6FA0346184601F082FB69
:100C100003469AB22D4B1A80786901F097FB024681
:100C20000B461046194622A3D3E9002301F004FA2B
:100C30000346002B02D0234B9B681AE07869796841
:100C400001F038FA03461846B96801F009FB03467B
:100C5000184601F07BFB02460B464FF000001A4994
:100C600000F040FF02460B461046194601F096F987
:100C70000346134A13603B6901333B61114B9A6889
:100C80000F4B1B689A4294DB104B4FF496721A80FC
:100C90000E4B1B880E4805211A46FFF79FFC0C4897
:100CA00000F02AFA1837BD46B0BD00BFAFF3008090
:100CB0002B8716D9CEF7EF3F980000108400001064
:100CC000A4000010700000100000F03FA000001011
:100CD00000800140AFF3008080B500AF664B1B88F9
:100CE000664805211A46FFF779FC644800F004FACB
:100CF000634B1B68042B70D801A252F823F000BF8D
:100D0000150D0000430D0000610D00008F0D000067
:100D1000AD0D00005B4B9A685B4B9B68DBB25B4898
:100D200011461A460023FFF737FB564B1A68564BFD
:100D30001B68DBB2554811461A460123FFF72CFB0E
:100D400059E0534B5A68534B5B68DBB24F4811462E
:100D50001A460123FFF720FB4F4B02221A604AE09C
:100D6000484B1A68484B1B68DBB2484811461A4684
:100D70000023FFF711FB434B5A68434B5B68DBB220
:100D8000424811461A460123FFF706FB33E0404B69
:100D90009A68404B9B68DBB23C4811461A460123D7
:100DA000FFF7FAFA3C4B00221A6024E0354B5A68F0
:100DB000354B5B68DBB2354811461A460023FFF716
:100DC000EBFA304B9A68304B9B68DBB22F481146E8
:100DD0001A460123FFF7E0FA0DE02D4B1A682D4B60
:100DE0001B68DBB2294811461A460123FFF7D4FAE3
:100DF000294B01221A60224B1B68042B08DD204B73
:100E000000221A60254B1B680133244A136004E05A
:100E10001B4B1B6801331A4A1360214B00221A60D6
:100E2000204B1A68204B1B68DBB2184811461A4643
:100E3000FFF7E6FA03461A461C4B1A70194B5A681C
:100E4000194B5B68DBB2114811461A46FFF7D8FA16
:100E500003461A46154B5A70124B9A68124B9B6800
:100E6000DBB20A4811461A46FFF7CAFA03461A4689
:100E70000E4B9A7080BD00BFA000001000800140A2
:100E800094000010040000101000001000C00920A1
:100E9000280000104000001088000010980000108A
:100EA0008400001058000010640000109000001032
:100EB00080B500AF1D480021FFF728FB0346002B3B
:100EC00018D01B4B1B680133194A136017480021C7
:100ED000FFF740FB174B1B68174A52F82310154BBE
:100EE0001B68164A52F82330DBB215481A46002315
:100EF000FFF752FA0D480521FFF708FB0346002BC8
:100F000013D00A480521FFF725FB0A4B1B680A4A44
:100F100052F82310074B1B68084A52F82330DBB203
:100F200007481A460123FFF737FA80BD00800140C9
:100F300084000010880000102800001040000010FD
:100F400000C0092080B582B000AF054B7B60054A28
:100F50007B681A6000F034F80837BD4680BD00BFDA
:100F600008ED00E00000000080B485B000AF03464B
:100F7000FB71084B1B68C3F30B03FB60054AFB794D
:100F80001B031946FB680B4313601437BD465DF81D
:100F9000047B704700C00F4080B500AF0248034992
:100FA000172200F079F880BD00C002402024000024
:100FB00080B500AF00F072F90420FFF7D5FF80BDC7
:100FC00080B500AFFFF7E8FFFFF7F2FF80BD00BF7D
:100FD00090B587B002AFF8607B600B46FB7213469A
:100FE000BB727B689C087B68DBB203F00303DBB257
:100FF000F97ABA7A0093F868234600F003F81437B8
:10100000BD4690BD80B487B000AFF8607B600B46F2
:10101000FB721346BB72BB7A03F00F03DBB25B00BB
:10102000FB75FB7A5B00DAB2BB7A1B09DBB21344B7
:10103000BB75BA7DFB6853F82220FB7D032101FAC2
:1010400003F3DB4313403B61BA7D97F82010FB7D2F
:1010500001FA03F319463B691943FB6843F8221070
:10106000BA7DFB68103253F82220FB7D032101FA80
:1010700003F3DB4313403B61BA7DFB7D7968994004
:101080003B691943FB68103243F822101C37BD46F8
:101090005DF8047B704700BF90B587B000AFF86083
:1010A000B9607A6000237B611FE07B699B00BA68AE
:1010B00013441B78C3F30203DBB219467B699B0020
:1010C000BA6813441B78C3F3C403DBB21C467B69C4
:1010D0009B00BA6813441B68C3F31723F8682246C1
:1010E000FFF776FF7B6901337B617A697B689A42FF
:1010F000DBD31C37BD4690BD80B485B000AF7860AF
:101100007B685B68FB607B6800225A607B68012219
:101110009A607B685B6843F008027B685A607B6872
:10112000FA685A601437BD465DF8047B704700BF0B
:1011300080B483B000AF7860084611461A46034673
:10114000FB700B46BB7013467B70FB78002B2FD0D7
:101150007B78002B0AD07B68DB6CFA78083201219F
:1011600001FA02F21A437B68DA640AE07B68DB6CFE
:10117000FA780832012101FA02F2D2431A407B6860
:10118000DA64BB78012B09D17B68DB6CFA7801212A
:1011900001FA02F21A437B68DA6409E07B68DB6CCF
:1011A000FA78012101FA02F2D2431A407B68DA642C
:1011B0000C37BD465DF8047B704700BF80B400AFBC
:1011C000074BD3F8883003F08073002B14BF012342
:1011D0000023DBB21846BD465DF8047B704700BFB4
:1011E00000C00F4080B400AF074BD3F8883003F045
:1011F0008063002B14BF01230023DBB21846BD46D9
:101200005DF8047B704700BF00C00F4080B400AFA2
:10121000074BD3F8883003F00073002B14BF012371
:101220000023DBB21846BD465DF8047B704700BF63
:1012300000C00F4080B400AF054A054BD3F8A03181
:1012400043F02003C2F8A031BD465DF8047B70472F
:1012500000C00F4080B400AF074BD3F8A03103F0BB
:101260004003002B14BF01230023DBB21846BD4608
:101270005DF8047B704700BF00C00F4080B483B0AE
:1012800000AF0346FB71044AFB79C2F80C310C37FE
:10129000BD465DF8047B704700C00F4080B500AFCD
:1012A000FFF7B4FF0346002B03D00020022100F01B
:1012B00079F8FFF783FF0346002B03D000200121BC
:1012C00000F070F8FFF7C6FF034683F00103DBB2BE
:1012D000002B01D0FFF7AEFF00BFFFF7BBFF0346B7
:1012E00083F00103DBB2002BF7D1002000F0A8F857
:1012F0000120FFF7C3FF00200F21002200F074F847
:101300000020012100F02CF8032000F099F800BF24
:10131000FFF768FF034683F00103DBB2002BF7D130
:101320000020022100F01CF880BD00BF80B483B013
:1013300000AF0346FB71094AFB795B011344883314
:10134000AA225A60054AFB795B011344883355226F
:101350005A600C37BD465DF8047B704700C00F40F3
:1013600080B584B000AF03463960FB710C4AFB794D
:1013700004335B0113441B68FB60FA683B6813434A
:10138000FB60074AFB7904335B011344FA681A6077
:10139000FB791846FFF7CAFF1037BD4680BD00BF76
:1013A00000C00F4080B584B000AF03463960FB71C8
:1013B0000C4AFB7904335B0113441B68FB603B68F8
:1013C000DB43FA681340FB60064AFB7904335B0198
:1013D0001344FA681A60FB791846FFF7A7FF103725
:1013E000BD4680BD00C00F4080B586B000AF03464B
:1013F000B9607A60FB73FB7B002B05D17B681A0414
:10140000BB6813437B6104E07B685A01BB681343EC
:101410007B610A4AFB7B04335B0113447A695A609F
:10142000064AFB7B04335B01134401221A60FB7BF9
:101430001846FFF77BFF1837BD4680BD00C00F4040
:1014400080B483B000AF7860044A7B68C2F804318E
:101450000C37BD465DF8047B704700BF00C00F40ED
:1014600008B500200146024600F004F8BDE8084037
:10147000FFF7FCB910B500214FF4A072224800F02C
:101480006BF8C02000F0A4F9204C0021C02220609D
:1014900000F062F8206800231B4C2822182102FB70
:1014A000034201FB03010133082B5162F4D12246B0
:1014B0001749002000F074F84FF4805320460021B3
:1014C0004FF4806200F028F804F12802114901204D
:1014D00000F066F84FF4805304F1280000214FF427
:1014E000806200F019F804F150020A49022000F06D
:1014F00057F804F1500000214FF480624FF48053FC
:10150000BDE8104000F008B8B0000010AC000010BA
:101510007C2400007E24000070B5C468A50717D0A5
:10152000B2F5007F09D0B2F5806F03D0B2F5807FAD
:101530000ED102E0416A012303E0064D5E1EAE4279
:1015400006D8144301610160C361C460002070BD0E
:10155000012070BDFEFFFF0000F034BFC36810B56E
:1015600023F02003C360436A82695B6804469A42A1
:101570000FD000F04AF8E368626A23F4405323F086
:10158000100343F01003E3605368A3612369936081
:101590002360E36823F4804323F04003E36010BD3D
:1015A00070B50D4606461046144600F021F92B781A
:1015B000722B0AD0772B05D0612B23D1082348F258
:1015C000020204E00423022201E00023012215F8B4
:1015D000011F2B2906D0622909D142F0040243F0F1
:1015E0000103F4E742F0030243F00203EFE71B07B5
:1015F000E2606661204607D50021022200F046F92C
:10160000204670BD002070BD70BD38B50446426AEA
:1016100005690368C068916820F40022E26000F068
:101620008202022A02D04FF0FF3038BD10F4803021
:1016300016D0994238BF1946A94209D1636A0020E1
:101640009D60E368256023F48033A060E36038BDCB
:101650002846491B224600F005F80028EED0E2E7B4
:1016600038BD00002DE9F041D5688046EB020E46FA
:101670001446576905D5384600F0C1FE45F01005FF
:10168000A061134B2B4053B13846A16900F0C0FE56
:10169000002814DB25F4003525F01005E5603246FE
:1016A0003846414600F0BAFE801B18BF4FF0FF30AD
:1016B00020F00043F61AA3691E44A66128B1E3682E
:1016C0004FF0FF3043F08003E360BDE8F08100BFDE
:1016D00010000200F8B5314BC51C1C68AD0898B16C
:1016E0001F46002605F10A0E05F1030C05E02368EC
:1016F000B3F1805F14D02646A468002CF7D10C30DB
:1017000000F0A2F9431C10D10020F8BD1168B1F11E
:10171000805F15D151680B44033363609368A36005
:10172000A2686368002AF1D10AE04FF0005380E814
:10173000280084600EB9386000E0B0600C30F8BD5D
:10174000AB4207DB9C4505DB20464FF0005340F8D9
:101750000C3BF8BD734511D920464FF00051656030
:1017600040F80C1B00EB8501A1604FF0805440F85D
:1017700025405D1B033D4D608A60F8BD002ABAD14B
:10178000A0EB830000F060F90130BDD04FF00053B2
:1017900084E8280004F10C00F8BD00BFF00100103F
:1017A000A8B14FF0805340F80C3C50F8042C72B1B3
:1017B0001368B3F1805F0AD1536850F8081C0B44DA
:1017C000033340F8083C936840F8043CEDE7704769
:1017D00010B5FFF77FFF044628B90449172200F02F
:1017E0001DFE00F008FE204610BD00BF8024000052
:1017F0002DE9F04100F10C0595E8A001A90788B09A
:101800000446466A25D02A0716D400F027F8404639
:1018100000F0F2FD2B0502D53846FFF7C1FFAD0DF4
:10182000AD0515F1A54F07D16846216A202200F0C9
:10183000F2FD684600F0D8F800211822606AFFF730
:101840008BFE204600212822FFF786FE66620020DC
:1018500001E04FF0FF3008B0BDE8F08138B5044634
:1018600018B1BDE8384000F00FB9054606482044DD
:1018700000F00AF92834002818BF4FF0FF35B4F5FE
:10188000A07FF3D1284638BDB00000102DE9F84301
:10189000C668414B044633400D469046D0F814903C
:1018A000002B75D0484600F0ADFD074600286FD1EB
:1018B000B8F1010F06D0B8F1020F08D0B8F1000F4F
:1018C00066D129E0204600F069F8054424E0484646
:1018D00000F095FDB0F1000ED4F80CC004DA4CF025
:1018E0008001E160012754E02368606A1A46A36919
:1018F0001946836893422CBFC918891823691CF0C4
:10190000200FA1EB030303D042689342B8BF1346F4
:101910007345ACBFED187544002D39DB16F4005F3C
:10192000626A04D023689168994238BF9360A169C4
:101930008D4210DB90682368D4F810E0834238BFF2
:1019400003465818CEEB0000854204DCD06801EB5A
:10195000000C654506DB0023A360636046F02006AB
:1019600055600FE06D1AB10744BF281AA060F20756
:1019700044BFC3EB0E035B19754448BF6360256029
:1019800026F0200626F4032626F04006E66000E056
:1019900002273846BDE8F88303001000C3689A07A1
:1019A00005D1104B21221A604FF0FF30704713F41D
:1019B000002F03F020030AD013B1436A586804E0F3
:1019C0000268836900691344181A0138704713B11B
:1019D000436A586870470268836900691344181A9B
:1019E000704700BF9C00001010B5044600F006F8D8
:1019F00001462046BDE8104000F007BD10B5421C6E
:101A0000830705D010F8013B002BF9D1801A10BDD7
:101A1000034650F8041BA1F1013424EA010414F038
:101A2000803FF5D011F0FF0F0AD011F47F4F05D0A1
:101A300011F47F0F14BF0346033302E0023300E0CA
:101A40000133981A10BD000038B50C4B1A680AB95A
:101A50000B4A1A60C41C1D6824F003042C44204661
:101A600000F034F818B9054B28461C6038BD054B0A
:101A70000C221A604FF0FF3038BD00BFF401001097
:101A8000F80100109C000010C26870B512F003034A
:101A9000044619D0930604D5436A5D68FFF75EFDDE
:101AA00004E0056883692B4405695D1BE3682046F3
:101AB00023F44053E360FFF7A8FD0646294620467D
:101AC0000022FFF7E3FE3346184670BD044B23B1F6
:101AD000984234BF0020012070471846704700BF6D
:101AE00000000000C1F30A5C2DE9F047BCF1000FD3
:101AF00053D040F2FF74A4454FD0C3F30A58B8F155
:101B0000000F4AD0A04548D04FEA505A4FEA5259E8
:101B1000C402D6024AEAC12049EAC32240F0004585
:101B200042F00047BD4208BFB442C8EB0C0C83EA48
:101B300001085DD20CF2FD3C79084FEA36003423EF
:101B4000002200E0013B8D4208BF84424FEA42027E
:101B500004D3241A65EB010542F0010224196D41FA
:101B6000202B62D0002BEDD18D4208BF844203D3DD
:101B7000013208BF0EF1010E40F2FD718C4508F0F4
:101B800000433BD9BCF1000FA4BF43F0FF4343F433
:101B9000E00300201946BDE8F0874A0012F5001F57
:101BA0001CD85C0014F5001F18D843EA0100C0F3EC
:101BB0000A504505B0B1500D5940400501F00041B3
:101BC000A0B1600D400548B314F5001F1DD112F5FA
:101BD000001F03D000221046BDE8F0870020144902
:101BE000BDE8F08712492846BDE8F087BDE8F087D8
:101BF0006D084FEA34040CF2FE3C9DE703EB0C53F6
:101C000003EB0E011046BDE8F08741F0FF410022D2
:101C100041F4E00310461946BDE8F08741F0FF416A
:101C200041F4E0031946BDE8F08796468AE700BF15
:101C30000000F87FF0B593EA01040D4600F1CC8076
:101C40009942064670D2564004F100417240564017
:101C50004D404B4040F2FF702C0D24F40061814256
:101C6000A4EB135700F096808F4200F09980C5F3E3
:101C70001305C3F313031F2F45F4801543F480139A
:101C800057D8C7F1200003FA00FE22FA07F14EEA06
:101C90000101FB40711AED1A8E4238BF05F1FF3584
:101CA00012FA00F306D001394F1CC3F1000308BF3C
:101CB00005F1FF3515F4C01F58D1DB0FCA0F43EAF9
:101CC000410342EA450253EA020500F09A80510BB3
:101CD000A4F1020508D1190E41EA0222510BA5F127
:101CE00008054FEA0323F6D0510C04D1190F043D27
:101CF00041EA02121B01D10C04D1990F023D41EAC5
:101D000082029B00110D04D1D90F013D41EA42022C
:101D10005B00E40AB4EBD52F4FF0000006BF02EBE6
:101D200005511846E107F0BD904293D8994291D1F0
:101D300089E7352F26D8A7F1200023FA00F1711A80
:101D40008E42C7F1400722FA00F038BF05F1FF3597
:101D5000BB40120643EA000348D043F0FF030139B9
:101D60004E1CC3F1000308BF05F1FF35E8022ED475
:101D7000013C620537D0DE0FCA0F42EA450546EA4C
:101D800041065B00002B25F4801511DB05EB0451A7
:101D90003046F0BD2B0317D187B330462946F0BD3E
:101DA00040F2FE739F42F5D89FB939463846F0BDE0
:101DB000013608BF0135B3F1004F08BF26F0010618
:101DC00005EB04513046F0BD00200F49F0BD0E4632
:101DD000D8E729463046F0BD03F100452B46BDE863
:101DE000F04000F013B821051046F0BD002BB6D12D
:101DF000EA02BDD525F480150E46C7E702493846EC
:101E0000F0BD29462846F0BD0000F87FF0B593EA02
:101E100001060C4600F187809942054639D340F20D
:101E2000FF70260D26F4006181423FD0A6EB1357C8
:101E30008F424CD0C4F31304C3F313031F2F44F495
:101E4000801443F4801338D8C7F1200003FA00FE51
:101E500022FA07F1FB404EEA01011C446D1828BF2D
:101E6000013402FA00F3A20229D5013508BF01347A
:101E70000BB925F00205330503EB54035A0012F5A4
:101E8000001F4FF0000040D2E407194644EA550015
:101E9000F0BD40F2FF7074407340260D554026F4AB
:101EA00000616A40814285EA0205BFD123034FF0F9
:101EB000000036D121462846F0BD352F11D9002B20
:101EC00006F1FF3624DB04EB06512846F0BD40F254
:101ED000FE739F42EAD8002FECD104F0004138464F
:101EE000F0BDA7F1200123FA01F0C7F14007BB4084
:101EF00022FA01F12D1843EA01031BD3120604F163
:101F00000104B0D043F0FF03ADE701363105F0BD69
:101F1000013508BF0134B3F1004F08BF25F00105BA
:101F2000D1E70649F0BD03F100452B46BDE8F0407E
:101F3000FFF780BE1206E5D1C1E700BF0000F87FC1
:101F400010B421F0004404F1474303F57003B3F1EA
:101F50007E6F01F0004210D2430F04F1484443EA7F
:101F6000C404C30004EBD370B3F1004F08BF20F0EA
:101F7000010010435DF8044B7047002B09DB49005A
:101F800011F5001F94BF42F0FF4003485DF8044B79
:101F900070471046EEE700BF0000C07FCB020A0D7D
:101FA00043EA5050C2F58363063340F00040FF2BF4
:101FB00020FA03F00FD913F4E06F0DD011F0804038
:101FC00009D04B0013F5001F04D8C80F00F10040E2
:101FD000013870470020704740427047F0B1030C51
:101FE0000CBF000401F18071030E0CBF000201F56B
:101FF0000001030F0CBF000101F58001830F0CBF2E
:10200000800001F500110028ACBF400001F58011EF
:1020100001EBE02342051046194670470346194676
:10202000704700BF00F00041C30F80EAE072D01893
:1020300001F18041FFF7D2BF30B453EA010409D463
:102040004C0014F5001F02D8994217D819D000206F
:1020500030BC70474D0015F5001FF8D85C0014F532
:10206000001FF4D8054301D1144310D0994205D381
:10207000EDD190422CBF00200120E9E7012030BCC7
:102080007047904294BF0020012030BC704720462A
:10209000DEE700BFB0FA80F39840C3F11F0300F100
:1020A000800201EBC35101EB2220130608BF20F090
:1020B00001007047C0F3C75373B3FF2B2CD0C1F39B
:1020C000C7524AB3FF2A27D070B405020C0245F06C
:1020D000004544F00044A5FB04452E46002D80EA4F
:1020E0000100A8BF6E0000F000411A4441EA162327
:1020F0004FEA0666B4BF7F3A803AB6F1004F03EB71
:10210000C25329D0FD2A30D96CB3002AB4BF084687
:1021100041F0FF4070BC70474300B3F17F4F80EA4D
:10212000010011D24900B1F17F4F10D3B1F17F4FBF
:102130000BD813F07F4F08D011F07F4F05D000F07F
:10214000004040F0FF40704704D00948704700F05D
:10215000004070474900E9E7581C0CB920F0010025
:10216000FD2AD2D8D6E7581CF8E703EBD670D1E7A2
:102170000000C07F90EA0102034666D4884230B472
:1021800025D3DA0DD0B2FF28A2EBD15529D0854254
:102190002DD0090241F000411B0243F0004321FA17
:1021A00005F01B1A2AD45800002839DB23D030BC94
:1021B000B0FA80F1931E5B1ADB05D20593EA020F99
:1021C0005ABF884003EB102002F00040704702F134
:1021D000004253405140DA0DD0B2FF28A2EBD15556
:1021E000D5D15A0200D11DB930BC1C48704715B179
:1021F00030BC18467047002030BC704703F10040E7
:102200008030D20502EB10230206F1D1C5F1200582
:1022100011FA05F20CBF23F0010303F1FF33E7E7E6
:102220008030D40504EB2023000612D102F0FE0218
:10223000C5F12005A9400CBF23F0010303F1FF33D2
:10224000002AD5D103F00043D2E701F1004100F0AC
:1022500007B812F0FE02EBD0CAE700BF0000C07F53
:1022600090EA010203464ED4884238BF53404FEAF9
:10227000D35038BF5140C2B2FF2A37D030B4A0EBA0
:10228000D15494421BD0090241F000411B0243F09B
:10229000004321FA04F2D31816D203F1004280322F
:1022A000C00500EB1223120606D1C4F1200411FA76
:1022B00004F201D123F00103184630BC7047002C12
:1022C000FAD103F00043F7E7421C03F58075D0050F
:1022D00000EB5523ED050ED1C4F12004A140D2B28C
:1022E00001D123F00103FF2AE6D1E6E75A020CBF31
:1022F000184607487047D2B2FF2ADDD1C4F1200446
:10230000A140EED0D9E701F10041FFF733BF00BF94
:102310000000C07F0202C30D42F00040D3F19E02D4
:1023200001D4D0407047FE2B04D9B0F1004F01D04A
:10233000002070471B0A581E704700BF18B14FF0AD
:102340008041FFF7A7BE0020704700BFC31013F005
:102350007F6104D103F00043002019467047B1F1BA
:102360007F6F4FEA407243F0E04303D003F14841EE
:1023700010467047034952EA033218BF0B4600204B
:10238000194670470000F87F50EA010308D4430063
:10239000B3F17F4F0ED8884294BF002001207047D0
:1023A0004200B2F17F4F05D84A00B2F17F4F01D809
:1023B000884201D30020704713F1004018BF01206C
:1023C000704700BF034613F0030F0ED101F0FF0169
:1023D00041EA012141EA0141043A24BF43F8041BC8
:1023E000B2F10402F9D202F10402013A24BF03F867
:1023F000011BFAE77047FEE74FF0FF3070474FF0E0
:10240000FF3070474FF0FF3070474FF0FF3070479C
:102410004FF0FF3070474FF0FF3070471046704765
:10242000000A0000080A0000200A0000280A000034
:10243000B0080000B8090000D00A0000010900003F
:1024400009090000210900004109000049090000B4
:10245000510900007109000079090000810900009C
:1024600089090000D90900001A0800007808000056
:102470002208000080080000880800007200770031
:102480002A2A2A205F437379735F616C6C6F632023
:102490006661696C65640A00A086010001000000A5
:1024A00001000000010000001A00000017000000F9
:1024B0001400000000000000000000000000000008
:1024C0000100000001000000010000000000000009
:1024D00000000000000000001800000015000000CF
:1024E00012000000000000000000000000000000DA
:1024F00001000000010000000100000013000000C6
:102500001600000019000000C8000000E6000000EE
:0C2510003C0000000000A04000009643CA
:00000001FF
