:100000000080001071010000E9010000F101000012
:10001000F90100000102000009020000B274FFEFC4
:1000200000000000000000000000000011020000BD
:100030001902000000000000210200002902000057
:1000400031020000310200003102000031020000E4
:1000500031020000310200003102000031020000D4
:10006000310200002D0D00003102000031020000BD
:1000700031020000310200003102000031020000B4
:1000800031020000310200003102000031020000A4
:100090003102000031020000310200003102000094
:1000A0003102000031020000310200003102000084
:1000B0003102000031020000310200003102000074
:1000C000310200003102000031020000501C00002B
:1000D000000000106C000000501C000000C0072051
:1000E000000000006C0000107C01000000C0072030
:1000F0000000000080B489B000AFF860B9607A6099
:10010000BB68FB61FB68BB6100237B610AE0FB69A4
:100110001A1DFA61BA69111DB96112681A607B690A
:1001200004337B617A697B689A42F0D32437BD46F9
:100130005DF8047B704700BF80B485B000AF786085
:1001400039607B68FB600023BB6007E0FB681A1D19
:10015000FA6000221A60BB680433BB60BA683B686F
:100160009A42F3D31437BD465DF8047B704700BF55
:1001700080B584B000AF194BFB6013E0FB681A1D1B
:10018000FA601B68BB60FB681A1DFA601B687B6025
:10019000FB681A1DFA601B683B60B86879683A68AA
:1001A000FFF7A8FFFB680E4A9342E7D30DE0FB6818
:1001B0001A1DFA601B687B60FB681A1DFA601B68D9
:1001C0003B6078683968FFF7B7FFFB68054A9342E0
:1001D000EDD300F0F5FD01F08BF9FEE7CC00000057
:1001E000E4000000F400000080B400AFFEE700BFB0
:1001F00080B400AFFEE700BF80B400AFFEE700BFF1
:1002000080B400AFFEE700BF80B400AFFEE700BFE0
:1002100080B400AFFEE700BF80B400AFFEE700BFD0
:1002200080B400AFFEE700BF80B400AFFEE700BFC0
:1002300080B400AFFEE700BFFFFFFFFFFFFFFFFF3F
:10024000FFFFFFFFFFFFFFFFFFFFFFFFFFFFFFFFBE
:10025000FFFFFFFFFFFFFFFFFFFFFFFFFFFFFFFFAE
:10026000FFFFFFFFFFFFFFFFFFFFFFFFFFFFFFFF9E
:10027000FFFFFFFFFFFFFFFFFFFFFFFFFFFFFFFF8E
:10028000FFFFFFFFFFFFFFFFFFFFFFFFFFFFFFFF7E
:10029000FFFFFFFFFFFFFFFFFFFFFFFFFFFFFFFF6E
:1002A000FFFFFFFFFFFFFFFFFFFFFFFFFFFFFFFF5E
:1002B000FFFFFFFFFFFFFFFFFFFFFFFFFFFFFFFF4E
:1002C000FFFFFFFFFFFFFFFFFFFFFFFFFFFFFFFF3E
:1002D000FFFFFFFFFFFFFFFFFFFFFFFFFFFFFFFF2E
:1002E000FFFFFFFFFFFFFFFFFFFFFFFFFFFFFFFF1E
:1002F000FFFFFFFFFFFFFFFFFFFFFFFFFFFFFFFF0E
:1003000080B483B000AF0346FB71084997F907300A
:100310005B09FA7902F01F02012000FA02F241F8AB
:1003200023200C37BD465DF8047B704700E100E0F8
:1003300080B483B000AF7860084611461A46034681
:10034000FB700B46BB7013467B707B78002B0FD085
:10035000FB785B017A681344FA78520179680A44A1
:100360009169BA78012000FA02F20A439A610EE01C
:10037000FB785B017A681344FA78520179680A4481
:10038000D169BA78012000FA02F20A43DA610C3727
:10039000BD465DF8047B704780B584B000AFF8605F
:1003A000B96011461A460B46FB711346BB71BB6818
:1003B000D9B2FA79BB79F868FFF7BAFF1037BD46B2
:1003C00080BD00BF80B483B000AF78600B46FB7087
:1003D0001346BB70FB785B017A6813445A69BB789B
:1003E00022FA03F303F00103002B14BF01230023BF
:1003F000DBB218460C37BD465DF8047B704700BF82
:1004000080B584B000AFF860B9601346FB71BB687B
:10041000DAB2FB79F86811461A46FFF7D3FF0346B4
:1004200018461037BD4680BD80B483B000AF7860F9
:100430000B46FB701346BB70FB785B017A68134474
:10044000FA78520179680A441168BA78012000FAF2
:1004500002F20A431A600C37BD465DF8047B704710
:1004600080B483B000AF78600B46FB701346BB705E
:10047000FB785B017A681344FA78520179680A4480
:100480001168BA78012000FA02F2D2430A401A60D9
:100490000C37BD465DF8047B704700BF80B582B065
:1004A00000AF7860084611461A460346FB700B46BB
:1004B000BB7013467B707B78002B07D0FA78BB7833
:1004C000786811461A46FFF7AFFF06E0FA78BB7866
:1004D000786811461A46FFF7C3FF0837BD4680BD4E
:1004E00080B582B000AF7860084611461A460346D0
:1004F000FB700B46BB7013467B70F978BA787B783B
:100500007868FFF7CBFF0837BD4680BD80B483B065
:1005100000AF78600B46FB707B681B6897F903207F
:10052000032A05DC97F90320012101FA02F205E014
:1005300097F903200432012101FA02F21340002B43
:1005400014BF01230023DBB218460C37BD465DF80B
:10055000047B704780B483B000AF78600B46FB70BB
:1005600097F90330032B06DC97F90330012202FAD6
:1005700003F31A4606E097F903300433012202FA26
:1005800003F31A467B681A600C37BD465DF8047B9E
:10059000704700BF80B483B000AF78607B685B6851
:1005A00043F001027B685A607B685B6843F0080295
:1005B0007B685A600C37BD465DF8047B704700BF0E
:1005C00080B483B000AF786039607B683A68DA60E5
:1005D0000C37BD465DF8047B704700BF80B485B022
:1005E00000AFF8600B467A60FB7297F90B30062B70
:1005F0002CD801A252F823F0150600001D060000B9
:10060000250600002D060000350600003D0600000E
:1006100045060000FB687A689A6118E0FB687A6812
:10062000DA6114E0FB687A681A6210E0FB687A68A5
:100630005A620CE0FB687A681A6408E0FB687A6822
:100640005A6404E0FB687A689A6400E000BF1437DB
:10065000BD465DF8047B704780B483B000AF78601E
:100660000B46FB707B685B69FA7802F00702510069
:10067000FA7802F007020A44012101FA02F21A4351
:100680007B685A610C37BD465DF8047B704700BF3C
:1006900080B483B000AF78600B46FB707B6859690B
:1006A00097F9032013465B0013440133012202FA39
:1006B00003F341EA03027B685A610C37BD465DF8DB
:1006C000047B704780B483B000AF78600B46FB704A
:1006D0007B68596997F9032013465B001344013383
:1006E000012202FA03F3DB4301EA03027B685A6149
:1006F0000C37BD465DF8047B704700BF80B483B003
:1007000000AF78600B46FB707B68596997F903204E
:1007100013465B0013440233012202FA03F3DB4366
:1007200001EA03027B685A610C37BD465DF8047B21
:10073000704700BF80B500AF1B480021FFF740FFA6
:10074000194800214FF47A72FFF748FF164800213C
:10075000FFF782FF14480021FFF79AFF124800219B
:10076000FFF7CCFF104805210022002300F09EFD7A
:100770000D4805211422FFF731FF0B480521FFF733
:100780006BFF09480521FFF79DFF07480521FFF78B
:10079000B5FF054800F06EFD0348FFF7FBFE09209A
:1007A000FFF7AEFD80BD00BF0080014080B500AF07
:1007B0002D48022100220123FFF792FE2A48022140
:1007C00003220123FFF78CFE274802210122012387
:1007D000FFF786FE2448022104220123FFF780FE52
:1007E0002148022102220123FFF77AFE1E4802213E
:1007F00005220123FFF774FE1B4802210322002378
:10080000FFF7CAFD1848022101220123FFF7C4FDAA
:100810001548022104220023FFF7BEFD12480221E1
:1008200002220123FFF7B8FD0F4802210522002311
:10083000FFF7B2FD0C48022100220123FFF7ACFDB7
:100840000948022106220023FFF74AFE064802213A
:1008500007220023FFF744FE034802210822002359
:10086000FFF73EFE80BD00BF00C0092080B582B00A
:1008700000AF0023FB800023BB8000237B80FF238D
:100880003B8000F057FC02464E4B1A6000F0BAF86D
:10089000FFF78CFFFFF74EFF00F0F4F80123FB8019
:1008A000494800211222FFF7ABFD034683F0010304
:1008B000DBB2002B17D0444800210122FFF7A0FD36
:1008C000034683F00103DBB2002B0CD000F09AF852
:1008D0000023FB800023BB8000237B80FF233B8021
:1008E0003A4B3B4A1A60384800211222FFF788FD34
:1008F000034683F00103DBB2002B1AD0334B1B6895
:10090000002B16D1BB88002B04D100F0BBF80123CB
:10091000FB800BE02F4B1B889BB2142B06D92D4B71
:100920001B889BB2053B9AB22A4B1A80274B284A58
:100930001A60254800210122FFF762FD034683F07B
:100940000103DBB2002B16D0204B1B68002B12D109
:10095000204B1B889BB2B3F5757F09D2BB88012B56
:1009600006D11C4B1B889BB205339AB2194B1A80D7
:10097000164B174A1A60154B1B68002B04D0134BFB
:100980001B68013B114A13607B88002B16D1124B68
:100990001B681A46114B1B689A4211D8FB88002B22
:1009A0000ED000F0EBF80123BB803B88013B3B807D
:1009B0003B88002B04D101237B8071E700F010F805
:1009C0006EE700BF8800001000C009200000001082
:1009D000A086010090000010940000106C00001030
:1009E00080B500AF054B1A68054B5B6903F0E00367
:1009F0009A4201D000F0C2F880BD00BF7400001020
:100A000040C0092080B500AF194B5B68194A1360DC
:100A1000174BDB689AB2184B1A80174B1B889AB297
:100A2000164B1A801648022103220023FFF7B4FC5C
:100A30001348022101220123FFF7AEFC10480221D6
:100A400004220023FFF7A8FC0D4802210222012303
:100A5000FFF7A2FC0A48022105220023FFF79CFCB5
:100A60000748022100220123FFF796FC80BD00BF4A
:100A70005800001094000010900000109800001022
:100A800000C0092080B584B000AF0123FB60354B66
:100A900000221A7000F072F809E000BF324B1B68A8
:100AA0001A46324B1B689A42F8D800F067F82D4B73
:100AB0001B78092BF1D92E4B1A692D4BDB68D21A02
:100AC0002B4B1B6892FBF3F3BB60294B5A68284BF6
:100AD0009B68D21A264B1B6892FBF3F37B600023C2
:100AE000FB6025E000BF204B1B681A461F4B1B68AC
:100AF0009A42F8D800F042F81D4BDB689AB2FB68C6
:100B00009BB2B96889B201FB03F39BB213449AB25A
:100B1000184B1A80164B5B681946FB687A6802FB13
:100B200003F3CB1A1A46104B1A60FB680133FB60C3
:100B30000F4B9A680C4B1B689A42D3DB0D4B9622E5
:100B40001A800C4B1B889BB20B4805211A46FFF7F5
:100B500045FD09480521012200F0EEFB1037BD4696
:100B600080BD00BF84000010940000106C000010D5
:100B700058000010900000100080014080B500AFC8
:100B80005C4B1B889AB25C4B1B889BB29A4211D07B
:100B9000584B1B889BB2594805211A46FFF71EFD8A
:100BA00056480521012200F0C7FB524B1B889AB220
:100BB000514B1A80524B1B68042B70D801A252F87B
:100BC00023F000BFD90B0000070C0000250C00002B
:100BD000530C0000710C00004A4B9A684A4B9B680A
:100BE000DBB24A4811461A460123FFF7D5FB454BB5
:100BF0001A68454B1B68DBB2444811461A4600236D
:100C0000FFF7CAFB59E0424B5A68424B5B68DBB2C4
:100C10003E4811461A460023FFF7BEFB3E4B022218
:100C20001A604AE0374B1A68374B1B68DBB237480B
:100C300011461A460123FFF7AFFB324B5A68324B7D
:100C40005B68DBB2314811461A460023FFF7A4FB6C
:100C500033E02F4B9A682F4B9B68DBB22B48114631
:100C60001A460023FFF798FB2B4B00221A6024E062
:100C7000244B5A68244B5B68DBB2244811461A4661
:100C80000123FFF789FB1F4B9A681F4B9B68DBB260
:100C90001E4811461A460023FFF77EFB0DE01C4B51
:100CA0001A681C4B1B68DBB2184811461A46002311
:100CB000FFF772FB184B01221A60114B1B68042BC3
:100CC00009DD0F4B00221A60144B1B780133DAB296
:100CD000124B1A7004E00A4B1B680133084A136078
:100CE0000F4B00221A600F4B5B6903F0E0030E4AC2
:100CF000136080BD9000001098000010008001403B
:100D000080000010280000104000001000C00920E2
:100D1000040000101000001070000010840000108B
:100D20006C00001040C009207400001080B500AFB6
:100D30001D480021FFF7EAFB0346002B18D01B4B90
:100D40001B680133194A136017480021FFF702FCA2
:100D5000174B1B68174A52F82310154B1B68164A8D
:100D600052F82330DBB215481A460123FFF714FB73
:100D70000D480521FFF7CAFB0346002B13D00A4894
:100D80000521FFF7E7FB0A4B1B680A4A52F82310BC
:100D9000074B1B68084A52F82330DBB207481A4653
:100DA0000023FFF7F9FA80BD008001406C000010BD
:100DB00070000010040000101000001000C0092096
:100DC00080B582B000AF054B7B60054A7B681A6036
:100DD00000F034F80837BD4680BD00BF08ED00E0E4
:100DE0000000000080B485B000AF0346FB71084BE3
:100DF0001B68C3F30B03FB60054AFB791B03194611
:100E0000FB680B4313601437BD465DF8047B7047E5
:100E100000C00F4080B500AF02480349172200F020
:100E2000F9F980BD00C00240D81B000080B500AFBA
:100E300000F016FB0420FFF7D5FF80BD80B500AFA2
:100E4000FFF7E8FFFFF7F2FF80BD00BF80B400AFFF
:100E5000074BD3F8883003F08073002B14BF0123B5
:100E60000023DBB21846BD465DF8047B704700BF27
:100E700000C00F4080B400AF074BD3F8883003F0B8
:100E80000073002B14BF01230023DBB21846BD46BC
:100E90005DF8047B704700BF00C00F4080B483B092
:100EA00000AF0346FB71094AFB795B0113448833A9
:100EB000AA225A60054AFB795B0113448833552204
:100EC0005A600C37BD465DF8047B704700C00F4088
:100ED00080B400AF054BD3F80C31DBB203F0030351
:100EE000DBB21846BD465DF8047B704700C00F407A
:100EF00080B400AF034B1B681846BD465DF8047B09
:100F0000704700BFD01B000080B400AF024B1846F2
:100F1000BD465DF8047B704700093D0080B400AF1A
:100F2000034B1B681846BD465DF8047B704700BF45
:100F3000D41B000080B500AF00F0A4F803461846AB
:100F400080BD00BF80B584B000AF03463960FB713F
:100F50000C4AFB7904335B0113441B68FB60FA689D
:100F60003B681343FB60074AFB7904335B0113447E
:100F7000FA681A60FB791846FFF790FF1037BD46F4
:100F800080BD00BF00C00F4080B584B000AF0346F5
:100F90003960FB710C4AFB7904335B0113441B6815
:100FA000FB603B68DB43FA681340FB60064AFB7951
:100FB00004335B011344FA681A60FB791846FFF7A3
:100FC0006DFF1037BD4680BD00C00F4080B586B0B4
:100FD00000AF0346B9607A60FB73FB7B002B05D141
:100FE0007B681A04BB6813437B6104E07B685A0189
:100FF000BB6813437B610A4AFB7B04335B011344E8
:101000007A695A60064AFB7B04335B011344012270
:101010001A60FB7B1846FFF741FF1837BD4680BDBD
:1010200000C00F4080B582B000AFFFF723FF03463A
:10103000002B02D00123FB7101E00023FB71FB793F
:1010400018460837BD4680BD80B483B000AF7860D5
:10105000044A7B68C2F804310C37BD465DF8047B56
:10106000704700BF00C00F4080B400AF044BD3F8FE
:101070000431DBB201331846BD465DF8047B70478E
:1010800000C00F4080B500AFFFF722FF0346012BE1
:1010900007D0022B09D0002B0BD1FFF735FF0346F9
:1010A00008E0FFF725FF034604E0FFF737FF03469C
:1010B00000E00023184680BD80B584B000AF002357
:1010C000FB60FFF7C3FE0346002B18D00E4BD3F88E
:1010D0008430C3F30E030133BB600B4BD3F8843071
:1010E0001B0CDBB201337B60FFF724FF0246BB68B9
:1010F00003FB02F35A007B68B2FBF3F3FB60FB686F
:1011000018461037BD4680BD00C00F4080B500AF07
:10111000FFF788FF0346002B05D0012B07D1FFF70F
:10112000CBFF034604E0FFF7ADFF034600E00023DA
:10113000184680BD98B500AFFFF7E8FF0446FFF7FB
:1011400093FF0346B4FBF3F3184698BD90B587B000
:1011500002AFF8607B600B46FB721346BB727B6884
:101160009C087B68DBB203F00303DBB2F97ABA7A3E
:101170000093F868234600F003F81437BD4690BD8D
:1011800080B487B000AFF8607B600B46FB721346FB
:10119000BB72BB7A03F00F03DBB25B00FB75FB7A1B
:1011A0005B00DAB2BB7A1B09DBB21344BB75BA7DB4
:1011B000FB6853F82220FB7D032101FA03F3DB4394
:1011C00013403B61BA7D97F82010FB7D01FA03F3D1
:1011D00019463B691943FB6843F82210BA7DFB6846
:1011E000103253F82220FB7D032101FA03F3DB4385
:1011F00013403B61BA7DFB7D796899403B69194397
:10120000FB68103243F822101C37BD465DF8047BA2
:10121000704700BF90B587B000AFF860B9607A60E2
:1012200000237B611FE07B699B00BA6813441B7835
:10123000C3F30203DBB219467B699B00BA6813440F
:101240001B78C3F3C403DBB21C467B699B00BA68FE
:1012500013441B68C3F31723F8682246FFF776FF91
:101260007B6901337B617A697B689A42DBD31C37E7
:10127000BD4690BD80B485B000AF78607B685B6888
:10128000FB607B6800225A607B6801229A607B6861
:101290005B6843F008027B685A607B68FA685A60B2
:1012A0001437BD465DF8047B704700BF80B483B03F
:1012B00000AF7860084611461A460346FB700B469D
:1012C000BB7013467B70FB78002B2FD07B78002BF4
:1012D0000AD07B68DB6CFA780832012101FA02F24D
:1012E0001A437B68DA640AE07B68DB6CFA780832C0
:1012F000012101FA02F2D2431A407B68DA64BB781A
:10130000012B09D17B68DB6CFA78012101FA02F22A
:101310001A437B68DA6409E07B68DB6CFA780121A8
:1013200001FA02F2D2431A407B68DA640C37BD46F8
:101330005DF8047B704700BF80B483B000AF786075
:101340000B46FB701346BB70BB78002B09D07B6843
:101350001B6DFA78012101FA02F21A437B681A65C3
:1013600009E07B681B6DFA78012101FA02F2D24391
:101370001A407B681A650C37BD465DF8047B7047E0
:1013800080B400AF074BD3F8883003F08073002B94
:1013900014BF01230023DBB21846BD465DF8047B71
:1013A000704700BF00C00F4080B400AF074BD3F8B8
:1013B000883003F08063002B14BF01230023DBB2CD
:1013C0001846BD465DF8047B704700BF00C00F4063
:1013D00080B400AF074BD3F8883003F00073002BC4
:1013E00014BF01230023DBB21846BD465DF8047B21
:1013F000704700BF00C00F4080B400AF054A054BE6
:10140000D3F8A03143F02003C2F8A031BD465DF807
:10141000047B704700C00F4080B400AF074BD3F887
:10142000A03103F04003002B14BF01230023DBB2E3
:101430001846BD465DF8047B704700BF00C00F40F2
:1014400080B483B000AF0346FB71044AFB79C2F855
:101450000C310C37BD465DF8047B704700C00F406F
:1014600080B500AFFFF7B4FF0346002B03D0002088
:101470000221FFF789FDFFF783FF0346002B03D00E
:1014800000200121FFF780FDFFF7C6FF034683F030
:101490000103DBB2002B01D0FFF7AEFF00BFFFF767
:1014A000BBFF034683F00103DBB2002BF7D1002022
:1014B000FFF7CAFD0120FFF7C3FF00200F21002224
:1014C000FFF784FD00200121FFF73CFD0320FFF71B
:1014D000BBFD00BFFFF768FF034683F00103DBB2EB
:1014E000002BF7D100200221FFF72CFD80BD00BFAB
:1014F00008B500200146024600F004F8BDE80840A7
:10150000FFF7B4B910B500214FF4A072224800F0E3
:101510006BF8C02000F0A4F9204C0021C02220600C
:1015200000F062F8206800231B4C2822182102FBDF
:10153000034201FB03010133082B5162F4D122461F
:101540001749002000F074F84FF480532046002122
:101550004FF4806200F028F804F1280211490120BC
:1015600000F066F84FF4805304F1280000214FF496
:10157000806200F019F804F150020A49022000F0DC
:1015800057F804F1500000214FF480624FF480536B
:10159000BDE8104000F008B8A00000109C0000104A
:1015A000341C0000361C000070B5C468A50717D0B5
:1015B000B2F5007F09D0B2F5806F03D0B2F5807F1D
:1015C0000ED102E0416A012303E0064D5E1EAE42E9
:1015D00006D8144301610160C361C460002070BD7E
:1015E000012070BDFEFFFF0000F0C4BAC36810B553
:1015F00023F02003C360436A82695B6804469A4211
:101600000FD000F04AF8E368626A23F4405323F0F5
:10161000100343F01003E3605368A36123699360F0
:101620002360E36823F4804323F04003E36010BDAC
:1016300070B50D4606461046144600F021F92B7889
:10164000722B0AD0772B05D0612B23D1082348F2C7
:10165000020204E00423022201E00023012215F823
:10166000011F2B2906D0622909D142F0040243F060
:101670000103F4E742F0030243F00203EFE71B0724
:10168000E2606661204607D50021022200F046F99B
:10169000204670BD002070BD70BD38B50446426A5A
:1016A00005690368C068916820F40022E26000F0D8
:1016B0008202022A02D04FF0FF3038BD10F4803091
:1016C00016D0994238BF1946A94209D1636A002051
:1016D0009D60E368256023F48033A060E36038BD3B
:1016E0002846491B224600F005F80028EED0E2E724
:1016F00038BD00002DE9F041D5688046EB020E466A
:101700001446576905D5384600F051FA45F01005E2
:10171000A061134B2B4053B13846A16900F050FA39
:10172000002814DB25F4003525F01005E56032466D
:101730003846414600F04AFA801B18BF4FF0FF3090
:1017400020F00043F61AA3691E44A66128B1E3689D
:101750004FF0FF3043F08003E360BDE8F08100BF4D
:1017600010000200F8B5314BC51C1C68AD0898B1DB
:101770001F46002605F10A0E05F1030C05E023685B
:10178000B3F1805F14D02646A468002CF7D10C304A
:1017900000F0A2F9431C10D10020F8BD1168B1F18E
:1017A000805F15D151680B44033363609368A36075
:1017B000A2686368002AF1D10AE04FF0005380E884
:1017C000280084600EB9386000E0B0600C30F8BDCD
:1017D000AB4207DB9C4505DB20464FF0005340F849
:1017E0000C3BF8BD734511D920464FF000516560A0
:1017F00040F80C1B00EB8501A1604FF0805440F8CD
:1018000025405D1B033D4D608A60F8BD002ABAD1BA
:10181000A0EB830000F060F90130BDD04FF0005321
:1018200084E8280004F10C00F8BD00BFE0010010BE
:10183000A8B14FF0805340F80C3C50F8042C72B122
:101840001368B3F1805F0AD1536850F8081C0B4449
:10185000033340F8083C936840F8043CEDE77047D8
:1018600010B5FFF77FFF044628B90449172200F09E
:10187000ADF900F098F9204610BD00BF381C0000FB
:101880002DE9F04100F10C0595E8A001A90788B009
:101890000446466A25D02A0716D400F027F84046A9
:1018A00000F082F92B0502D53846FFF7C1FFAD0DD8
:1018B000AD0515F1A54F07D16846216A202200F039
:1018C00082F9684600F0D8F800211822606AFFF714
:1018D0008BFE204600212822FFF786FE666200204C
:1018E00001E04FF0FF3008B0BDE8F08138B50446A4
:1018F00018B1BDE8384000F00FB90546064820444D
:1019000000F00AF92834002818BF4FF0FF35B4F56D
:10191000A07FF3D1284638BDA00000102DE9F84380
:10192000C668414B044633400D469046D0F81490AB
:10193000002B75D0484600F03DF9074600286FD1CE
:10194000B8F1010F06D0B8F1020F08D0B8F1000FBE
:1019500066D129E0204600F069F8054424E04846B5
:1019600000F025F9B0F1000ED4F80CC004DA4CF008
:101970008001E160012754E02368606A1A46A36988
:101980001946836893422CBFC918891823691CF033
:10199000200FA1EB030303D042689342B8BF134664
:1019A0007345ACBFED187544002D39DB16F4005FAC
:1019B000626A04D023689168994238BF9360A16934
:1019C0008D4210DB90682368D4F810E0834238BF62
:1019D00003465818CEEB0000854204DCD06801EBCA
:1019E000000C654506DB0023A360636046F020061B
:1019F00055600FE06D1AB10744BF281AA060F207C6
:101A000044BFC3EB0E035B19754448BF6360256098
:101A100026F0200626F4032626F04006E66000E0C5
:101A200002273846BDE8F88303001000C3689A0710
:101A300005D1104B21221A604FF0FF30704713F48C
:101A4000002F03F020030AD013B1436A586804E062
:101A50000268836900691344181A0138704713B18A
:101A6000436A586870470268836900691344181A0A
:101A7000704700BF8C00001010B5044600F006F857
:101A800001462046BDE8104000F097B810B5421C52
:101A9000830705D010F8013B002BF9D1801A10BD47
:101AA000034650F8041BA1F1013424EA010414F0A8
:101AB000803FF5D011F0FF0F0AD011F47F4F05D011
:101AC00011F47F0F14BF0346033302E0023300E03A
:101AD0000133981A10BD000038B50C4B1A680AB9CA
:101AE0000B4A1A60C41C1D6824F003042C442046D1
:101AF00000F034F818B9054B28461C6038BD054B7A
:101B00000C221A604FF0FF3038BD00BFE401001016
:101B1000E80100108C000010C26870B512F00303D9
:101B2000044619D0930604D5436A5D68FFF75EFD4D
:101B300004E0056883692B4405695D1BE368204662
:101B400023F44053E360FFF7A8FD064629462046EC
:101B50000022FFF7E3FE3346184670BD044B23B165
:101B6000984234BF0020012070471846704700BFDC
:101B700000000000034613F0030F0ED101F0FF0137
:101B800041EA012141EA0141043A24BF43F8041B20
:101B9000B2F10402F9D202F10402013A24BF03F8BF
:101BA000011BFAE77047FEE74FF0FF3070474FF038
:101BB000FF3070474FF0FF3070474FF0FF307047F5
:101BC0004FF0FF3070474FF0FF30704710467047BE
:101BD000001BB70000800000000A0000080A000097
:101BE000200A0000280A0000B0080000B809000020
:101BF000D00A0000010900000909000021090000C5
:101C00004109000049090000510900007109000064
:101C1000790900008109000089090000D909000044
:101C20001A08000078080000220800008008000060
:101C300088080000720077002A2A2A205F437379FF
:101C4000735F616C6C6F63206661696C65640A0028
:101C5000A086010002000000020000000200000057
:101C60000300000004000000050000000000000068
:101C70000000000000000000020000000200000060
:101C80000200000000000000000000000000000052
:101C90000000000001000000020000000000000041
:101CA000000000000000000096000000B4000000EA
:0C1CB0001E0000001400000040010000B5
:00000001FF
