:100000000080001071010000E9010000F101000012
:10001000F90100000102000009020000B274FFEFC4
:1000200000000000000000000000000011020000BD
:100030001902000000000000210200002902000057
:1000400031020000310200003102000031020000E4
:1000500031020000310200003102000031020000D4
:1000600031020000E50D0000310200003102000005
:1000700031020000310200003102000031020000B4
:1000800031020000310200003102000031020000A4
:100090003102000031020000310200003102000094
:1000A0003102000031020000310200003102000084
:1000B0003102000031020000310200003102000074
:1000C000310200003102000031020000EC1A000091
:1000D0000000001084000000EC1A000000C007209F
:1000E00000000000840000107401000000C0072020
:1000F0000000000080B489B000AFF860B9607A6099
:10010000BB68FB61FB68BB6100237B610AE0FB69A4
:100110001A1DFA61BA69111DB96112681A607B690A
:1001200004337B617A697B689A42F0D32437BD46F9
:100130005DF8047B704700BF80B485B000AF786085
:1001400039607B68FB600023BB6007E0FB681A1D19
:10015000FA6000221A60BB680433BB60BA683B686F
:100160009A42F3D31437BD465DF8047B704700BF55
:1001700080B584B000AF194BFB6013E0FB681A1D1B
:10018000FA601B68BB60FB681A1DFA601B687B6025
:10019000FB681A1DFA601B683B60B86879683A68AA
:1001A000FFF7A8FFFB680E4A9342E7D30DE0FB6818
:1001B0001A1DFA601B687B60FB681A1DFA601B68D9
:1001C0003B6078683968FFF7B7FFFB68054A9342E0
:1001D000EDD300F051FE01F0DDF8FEE7CC000000A9
:1001E000E4000000F400000080B400AFFEE700BFB0
:1001F00080B400AFFEE700BF80B400AFFEE700BFF1
:1002000080B400AFFEE700BF80B400AFFEE700BFE0
:1002100080B400AFFEE700BF80B400AFFEE700BFD0
:1002200080B400AFFEE700BF80B400AFFEE700BFC0
:1002300080B400AFFEE700BFFFFFFFFFFFFFFFFF3F
:10024000FFFFFFFFFFFFFFFFFFFFFFFFFFFFFFFFBE
:10025000FFFFFFFFFFFFFFFFFFFFFFFFFFFFFFFFAE
:10026000FFFFFFFFFFFFFFFFFFFFFFFFFFFFFFFF9E
:10027000FFFFFFFFFFFFFFFFFFFFFFFFFFFFFFFF8E
:10028000FFFFFFFFFFFFFFFFFFFFFFFFFFFFFFFF7E
:10029000FFFFFFFFFFFFFFFFFFFFFFFFFFFFFFFF6E
:1002A000FFFFFFFFFFFFFFFFFFFFFFFFFFFFFFFF5E
:1002B000FFFFFFFFFFFFFFFFFFFFFFFFFFFFFFFF4E
:1002C000FFFFFFFFFFFFFFFFFFFFFFFFFFFFFFFF3E
:1002D000FFFFFFFFFFFFFFFFFFFFFFFFFFFFFFFF2E
:1002E000FFFFFFFFFFFFFFFFFFFFFFFFFFFFFFFF1E
:1002F000FFFFFFFFFFFFFFFFFFFFFFFFFFFFFFFF0E
:1003000080B483B000AF0346FB71084997F907300A
:100310005B09FA7902F01F02012000FA02F241F8AB
:1003200023200C37BD465DF8047B704700E100E0F8
:1003300080B483B000AF7860084611461A46034681
:10034000FB700B46BB7013467B707B78002B0FD085
:10035000FB785B017A681344FA78520179680A44A1
:100360009169BA78012000FA02F20A439A610EE01C
:10037000FB785B017A681344FA78520179680A4481
:10038000D169BA78012000FA02F20A43DA610C3727
:10039000BD465DF8047B704780B584B000AFF8605F
:1003A000B96011461A460B46FB711346BB71BB6818
:1003B000D9B2FA79BB79F868FFF7BAFF1037BD46B2
:1003C00080BD00BF80B483B000AF78600B46FB7087
:1003D0001346BB70FB785B017A6813445A69BB789B
:1003E00022FA03F303F00103002B14BF01230023BF
:1003F000DBB218460C37BD465DF8047B704700BF82
:1004000080B584B000AFF860B9601346FB71BB687B
:10041000DAB2FB79F86811461A46FFF7D3FF0346B4
:1004200018461037BD4680BD80B483B000AF7860F9
:100430000B46FB701346BB70FB785B017A68134474
:10044000FA78520179680A441168BA78012000FAF2
:1004500002F20A431A600C37BD465DF8047B704710
:1004600080B483B000AF78600B46FB701346BB705E
:10047000FB785B017A681344FA78520179680A4480
:100480001168BA78012000FA02F2D2430A401A60D9
:100490000C37BD465DF8047B704700BF80B582B065
:1004A00000AF7860084611461A460346FB700B46BB
:1004B000BB7013467B707B78002B07D0FA78BB7833
:1004C000786811461A46FFF7AFFF06E0FA78BB7866
:1004D000786811461A46FFF7C3FF0837BD4680BD4E
:1004E00080B582B000AF7860084611461A460346D0
:1004F000FB700B46BB7013467B70F978BA787B783B
:100500007868FFF7CBFF0837BD4680BD80B483B065
:1005100000AF78600B46FB707B681B6897F903207F
:10052000032A05DC97F90320012101FA02F205E014
:1005300097F903200432012101FA02F21340002B43
:1005400014BF01230023DBB218460C37BD465DF80B
:10055000047B704780B483B000AF78600B46FB70BB
:1005600097F90330032B06DC97F90330012202FAD6
:1005700003F31A4606E097F903300433012202FA26
:1005800003F31A467B681A600C37BD465DF8047B9E
:10059000704700BF80B483B000AF78607B685B6851
:1005A00043F001027B685A607B685B6843F0080295
:1005B0007B685A600C37BD465DF8047B704700BF0E
:1005C00080B483B000AF786039607B683A68DA60E5
:1005D0000C37BD465DF8047B704700BF80B485B022
:1005E00000AFF8600B467A60FB7297F90B30062B70
:1005F0002CD801A252F823F0150600001D060000B9
:10060000250600002D060000350600003D0600000E
:1006100045060000FB687A689A6118E0FB687A6812
:10062000DA6114E0FB687A681A6210E0FB687A68A5
:100630005A620CE0FB687A681A6408E0FB687A6822
:100640005A6404E0FB687A689A6400E000BF1437DB
:10065000BD465DF8047B704780B483B000AF78601E
:100660000B46FB707B685B69FA7802F00702510069
:10067000FA7802F007020A44012101FA02F21A4351
:100680007B685A610C37BD465DF8047B704700BF3C
:1006900080B483B000AF78600B46FB707B6859690B
:1006A00097F9032013465B0013440133012202FA39
:1006B00003F341EA03027B685A610C37BD465DF8DB
:1006C000047B704780B483B000AF78600B46FB704A
:1006D0007B68596997F9032013465B001344013383
:1006E000012202FA03F3DB4301EA03027B685A6149
:1006F0000C37BD465DF8047B704700BF80B483B003
:1007000000AF78600B46FB707B68596997F903204E
:1007100013465B0013440233012202FA03F3DB4366
:1007200001EA03027B685A610C37BD465DF8047B21
:10073000704700BF80B500AF1B480021FFF740FFA6
:10074000194800214FF47A72FFF748FF164800213C
:10075000FFF782FF14480021FFF79AFF124800219B
:10076000FFF7CCFF104805210022002300F07AFC9F
:100770000D4805211422FFF731FF0B480521FFF733
:100780006BFF09480521FFF79DFF07480521FFF78B
:10079000B5FF054800F04AFC0348FFF7FBFE0920BF
:1007A000FFF7AEFD80BD00BF0080014080B500AF07
:1007B0002D48012118220123FFF792FE2A4801212A
:1007C0001A220123FFF78CFE27480121152201235D
:1007D000FFF786FE2448012117220123FFF780FE40
:1007E0002148012112220123FFF77AFE1E48012130
:1007F00014220123FFF774FE1B4801211A22002353
:10080000FFF7CAFD1848012115220123FFF7C4FD97
:100810001548012117220023FFF7BEFD12480121D0
:1008200012220123FFF7B8FD0F48012114220023F3
:10083000FFF7B2FD0C48012118220123FFF7ACFDA0
:100840000948012113220023FFF74AFE064801212F
:1008500016220023FFF744FE03480121192200233A
:10086000FFF73EFE80BD00BF00C0092080B582B00A
:1008700000AF0023FB800023BB8000237B80FF238D
:100880003B8000F0F9F8FFF791FFFFF753FF48486E
:1008900000211222FFF7B4FD034683F00103DBB20F
:1008A000002B17D0424800210122FFF7A9FD034683
:1008B00083F00103DBB2002B0CD000F0DDF8002345
:1008C000FB800023BB8000237B80FF233B80394BD0
:1008D000394A1A60364800211222FFF791FD03467B
:1008E00083F00103DBB2002B1AD0324B1B68002BC4
:1008F00016D1BB88002B04D100F0FEF80123FB8049
:100900000BE02E4B1B889BB2142B06D92B4B1B885C
:100910009BB2053B9AB2294B1A80264B264A1A6095
:10092000234800210122FFF76BFD034683F00103FA
:10093000DBB2002B16D01F4B1B68002B12D11F4BB4
:100940001B889BB2B3F5757F09D2BB88012B06D1FA
:100950001A4B1B889BB205339AB2184B1A80154B61
:10096000154A1A60134B1B68002B04D0114B1B68EF
:10097000013B104A13607B88002B16D1104B1B687B
:100980001A46104B1B689A4211D8FB88002B0ED0D8
:1009900000F02CF90123BB803B88013B3B803B8866
:1009A000002B04D101237B8071E700F00DF86EE786
:1009B00000C0092000000010A0860100A000001067
:1009C000A40000108400001080B500AF254B1A6809
:1009D000254B1B68DBB2254811461A46FFF710FD70
:1009E00003461A46224B1A701E4B5A681E4B5B6810
:1009F000DBB21E4811461A46FFF702FD03461A46AF
:100A00001B4B5A70174B9A68174B9B68DBB2174801
:100A100011461A46FFF7F4FC03461A46144B9A7027
:100A2000144B1B78DAB2124B1B78DBB29A4202D01D
:100A300000F0DCF814E00F4B5B78DAB20C4B5B781B
:100A4000DBB29A4202D000F0D1F809E0094B9B7862
:100A5000DAB2074B9B78DBB29A4201D000F0C6F8BD
:100A600080BD00BF580000106400001000C00920C5
:100A70008C0000109000001080B500AF194B5B682F
:100A8000194A1360174BDB689AB2184B1A80174B40
:100A90001B889AB2164B1A80164801211A2200238D
:100AA000FFF77AFC1348012115220123FFF774FC9C
:100AB0001048012117220023FFF76EFC0D48012189
:100AC00012220123FFF768FC0A48012114220023A7
:100AD000FFF762FC0748012118220123FFF75CFCA5
:100AE00080BD00BF70000010A4000010A000001026
:100AF000A800001000C0092080B584B000AF012319
:100B0000FB60344B00221A7000F070F809E000BF5F
:100B1000314B1B681A46314B1B689A42F8D800F0DB
:100B200065F82C4B1B78092BF1D92D4B1A692C4BEE
:100B3000DB68D21A2A4B1B6892FBF3F3BB60284B8D
:100B40005A68274B9B68D21A254B1B6892FBF3F31C
:100B50007B600023FB6025E000BF1F4B1B681A462B
:100B60001E4B1B689A42F8D800F040F81C4BDB681B
:100B70009AB2FB689BB2B96889B201FB03F39BB2DE
:100B800013449AB2174B1A80154B5B681946FB68E1
:100B90007A6802FB03F3CB1A1A460F4B1A60FB6804
:100BA0000133FB600E4B9A680B4B1B689A42D3DBF8
:100BB0000C4B96221A800B4B1B889BB20A480521CE
:100BC0001A46FFF70BFD084800F030FA1037BD4613
:100BD00080BD00BF98000010A40000108400001029
:100BE00070000010A00000100080014080B500AF30
:100BF0006D4B1B889AB26D4B1B889BB29A420FD0EB
:100C0000694B1B889BB26A4805211A46FFF7E6FC30
:100C1000674800F00BFA644B1B889AB2634B1A804A
:100C2000644B1B68042B70D801A252F823F000BF5C
:100C3000450C0000730C0000910C0000BF0C00007C
:100C4000DD0C00005C4B9A685C4B9B68DBB25C4837
:100C500011461A460123FFF79FFB574B1A68574B63
:100C60001B68DBB2564811461A460023FFF794FB77
:100C700059E0544B5A68544B5B68DBB250481146FC
:100C80001A460023FFF788FB504B02221A604AE005
:100C9000494B1A68494B1B68DBB2494811461A4652
:100CA0000123FFF779FB444B5A68444B5B68DBB286
:100CB000434811461A460023FFF76EFB33E0414BD1
:100CC0009A68414B9B68DBB23D4811461A460023A7
:100CD000FFF762FB3D4B00221A6024E0364B5A6856
:100CE000364B5B68DBB2364811461A460123FFF7E4
:100CF00053FB314B9A68314B9B68DBB2304811464D
:100D00001A460023FFF748FB0DE02E4B1A682E4BC6
:100D10001B68DBB22A4811461A460023FFF73CFB4A
:100D20002A4B01221A60234B1B68042B09DD214B3F
:100D300000221A60264B1B780133DAB2244B1A705A
:100D400004E01C4B1B6801331A4A1360214B00223C
:100D50001A60214B1A68214B1B68DBB218481146F8
:100D60001A46FFF74DFB03461A461D4B1A701A4BE5
:100D70005A681A4B5B68DBB2114811461A46FFF7F6
:100D80003FFB03461A46164B5A70134B9A68134B97
:100D90009B68DBB20A4811461A46FFF731FB03464F
:100DA0001A460F4B9A7080BDA0000010A8000010DA
:100DB0000080014094000010280000104000001046
:100DC00000C009200400001010000010880000106E
:100DD00098000010840000105800001064000010FB
:100DE0009000001080B500AF1D480021FFF78EFB7A
:100DF0000346002B18D01B4B1B680133194A1360A4
:100E000017480021FFF7A6FB174B1B68174A52F83B
:100E10002310154B1B68164A52F82330DBB21548D5
:100E20001A460123FFF7B8FA0D480521FFF76EFBBC
:100E30000346002B13D00A480521FFF78BFB0A4B12
:100E40001B680A4A52F82310074B1B68084A52F8DD
:100E50002330DBB207481A460023FFF79DFA80BD16
:100E60000080014084000010880000100400001081
:100E70001000001000C0092080B582B000AF054B03
:100E80007B60054A7B681A6000F034F80837BD467D
:100E900080BD00BF08ED00E00000000080B485B018
:100EA00000AF0346FB71084B1B68C3F30B03FB60E9
:100EB000054AFB791B031946FB680B431360143783
:100EC000BD465DF8047B704700C00F4080B500AFA1
:100ED00002480349172200F079F880BD00C00240A3
:100EE000741A000080B500AF00F072F90420FFF71B
:100EF000D5FF80BD80B500AFFFF7E8FFFFF7F2FF39
:100F000080BD00BF90B587B002AFF8607B600B4634
:100F1000FB721346BB727B689C087B68DBB203F0F4
:100F20000303DBB2F97ABA7A0093F868234600F03B
:100F300003F81437BD4690BD80B487B000AFF860A9
:100F40007B600B46FB721346BB72BB7A03F00F0348
:100F5000DBB25B00FB75FB7A5B00DAB2BB7A1B0984
:100F6000DBB21344BB75BA7DFB6853F82220FB7DCE
:100F7000032101FA03F3DB4313403B61BA7D97F889
:100F80002010FB7D01FA03F319463B691943FB6806
:100F900043F82210BA7DFB68103253F82220FB7D03
:100FA000032101FA03F3DB4313403B61BA7DFB7D70
:100FB000796899403B691943FB68103243F8221065
:100FC0001C37BD465DF8047B704700BF90B587B005
:100FD00000AFF860B9607A6000237B611FE07B6935
:100FE0009B00BA6813441B78C3F30203DBB21946B3
:100FF0007B699B00BA6813441B78C3F3C403DBB25C
:101000001C467B699B00BA6813441B68C3F3172313
:10101000F8682246FFF776FF7B6901337B617A69C6
:101020007B689A42DBD31C37BD4690BD80B485B047
:1010300000AF78607B685B68FB607B6800225A6069
:101040007B6801229A607B685B6843F008027B68DA
:101050005A607B68FA685A601437BD465DF8047BB5
:10106000704700BF80B483B000AF78600846114677
:101070001A460346FB700B46BB7013467B70FB7829
:10108000002B2FD07B78002B0AD07B68DB6CFA78A2
:101090000832012101FA02F21A437B68DA640AE09D
:1010A0007B68DB6CFA780832012101FA02F2D24344
:1010B0001A407B68DA64BB78012B09D17B68DB6C52
:1010C000FA78012101FA02F21A437B68DA6409E036
:1010D0007B68DB6CFA78012101FA02F2D2431A40F4
:1010E0007B68DA640C37BD465DF8047B704700BF4F
:1010F00080B400AF074BD3F8883003F08073002B27
:1011000014BF01230023DBB21846BD465DF8047B03
:10111000704700BF00C00F4080B400AF074BD3F84A
:10112000883003F08063002B14BF01230023DBB25F
:101130001846BD465DF8047B704700BF00C00F40F5
:1011400080B400AF074BD3F8883003F00073002B56
:1011500014BF01230023DBB21846BD465DF8047BB3
:10116000704700BF00C00F4080B400AF054A054B78
:10117000D3F8A03143F02003C2F8A031BD465DF89A
:10118000047B704700C00F4080B400AF074BD3F81A
:10119000A03103F04003002B14BF01230023DBB276
:1011A0001846BD465DF8047B704700BF00C00F4085
:1011B00080B483B000AF0346FB71044AFB79C2F8E8
:1011C0000C310C37BD465DF8047B704700C00F4002
:1011D00080B500AFFFF7B4FF0346002B03D000201B
:1011E000022100F079F8FFF783FF0346002B03D0BC
:1011F0000020012100F070F8FFF7C6FF034683F0DE
:101200000103DBB2002B01D0FFF7AEFF00BFFFF7F9
:10121000BBFF034683F00103DBB2002BF7D10020B4
:1012200000F0A8F80120FFF7C3FF00200F210022E3
:1012300000F074F80020012100F02CF8032000F0E9
:1012400099F800BFFFF768FF034683F00103DBB2A4
:10125000002BF7D10020022100F01CF880BD00BF58
:1012600080B483B000AF0346FB71094AFB795B0190
:1012700013448833AA225A60054AFB795B01134460
:10128000883355225A600C37BD465DF8047B7047A1
:1012900000C00F4080B584B000AF03463960FB71D9
:1012A0000C4AFB7904335B0113441B68FB60FA684A
:1012B0003B681343FB60074AFB7904335B0113442B
:1012C000FA681A60FB791846FFF7CAFF1037BD4667
:1012D00080BD00BF00C00F4080B584B000AF0346A2
:1012E0003960FB710C4AFB7904335B0113441B68C2
:1012F000FB603B68DB43FA681340FB60064AFB79FE
:1013000004335B011344FA681A60FB791846FFF74F
:10131000A7FF1037BD4680BD00C00F4080B586B026
:1013200000AF0346B9607A60FB73FB7B002B05D1ED
:101330007B681A04BB6813437B6104E07B685A0135
:10134000BB6813437B610A4AFB7B04335B01134494
:101350007A695A60064AFB7B04335B01134401221D
:101360001A60FB7B1846FFF77BFF1837BD4680BD30
:1013700000C00F4080B483B000AF7860044A7B683F
:10138000C2F804310C37BD465DF8047B704700BFDE
:1013900000C00F4008B500200146024600F004F8E6
:1013A000BDE80840FFF762BA10B500214FF4A07203
:1013B000224800F06BF8C02000F0A4F9204C002176
:1013C000C022206000F062F8206800231B4C282215
:1013D000182102FB034201FB03010133082B516278
:1013E000F4D122461749002000F074F84FF48053DE
:1013F000204600214FF4806200F028F804F1280212
:101400001149012000F066F84FF4805304F12800E0
:1014100000214FF4806200F019F804F150020A49EB
:10142000022000F057F804F1500000214FF48062D0
:101430004FF48053BDE8104000F008B8B000001031
:10144000AC000010D01A0000D21A000070B5C468B9
:10145000A50717D0B2F5007F09D0B2F5806F03D091
:10146000B2F5807F0ED102E0416A012303E0064D10
:101470005E1EAE4206D8144301610160C361C460C0
:10148000002070BD012070BDFEFFFF0000F0C4BA57
:10149000C36810B523F02003C360436A82695B68A8
:1014A00004469A420FD000F04AF8E368626A23F4D7
:1014B000405323F0100343F01003E3605368A3612B
:1014C000236993602360E36823F4804323F040039F
:1014D000E36010BD70B50D4606461046144600F098
:1014E00021F92B78722B0AD0772B05D0612B23D1D1
:1014F000082348F2020204E00423022201E0002350
:10150000012215F8011F2B2906D0622909D142F0CA
:10151000040243F00103F4E742F0030243F0020344
:10152000EFE71B07E2606661204607D50021022233
:1015300000F046F9204670BD002070BD70BD38B582
:101540000446426A05690368C068916820F4002275
:10155000E26000F08202022A02D04FF0FF3038BD74
:1015600010F4803016D0994238BF1946A94209D1EB
:10157000636A00209D60E368256023F48033A060E7
:10158000E36038BD2846491B224600F005F80028D4
:10159000EED0E2E738BD00002DE9F041D568804685
:1015A000EB020E461446576905D5384600F051FA4D
:1015B00045F01005A061134B2B4053B13846A1698B
:1015C00000F050FA002814DB25F4003525F0100552
:1015D000E56032463846414600F04AFA801B18BFA3
:1015E0004FF0FF3020F00043F61AA3691E44A661B5
:1015F00028B1E3684FF0FF3043F08003E360BDE8BB
:10160000F08100BF10000200F8B5314BC51C1C680A
:10161000AD0898B11F46002605F10A0E05F1030C2E
:1016200005E02368B3F1805F14D02646A468002C3F
:10163000F7D10C3000F0A2F9431C10D10020F8BD06
:101640001168B1F1805F15D151680B4403336360B9
:101650009368A360A2686368002AF1D10AE04FF0A2
:10166000005380E8280084600EB9386000E0B06064
:101670000C30F8BDAB4207DB9C4505DB20464FF044
:10168000005340F80C3BF8BD734511D920464FF08C
:101690000051656040F80C1B00EB8501A1604FF024
:1016A000805440F825405D1B033D4D608A60F8BDC5
:1016B000002ABAD1A0EB830000F060F90130BDD060
:1016C0004FF0005384E8280004F10C00F8BD00BF7F
:1016D000F0010010A8B14FF0805340F80C3C50F8D6
:1016E000042C72B11368B3F1805F0AD1536850F8CB
:1016F000081C0B44033340F8083C936840F8043C52
:10170000EDE7704710B5FFF77FFF044628B904499D
:10171000172200F0ADF900F098F9204610BD00BF87
:10172000D41A00002DE9F04100F10C0595E8A00164
:10173000A90788B00446466A25D02A0716D400F0C7
:1017400027F8404600F082F92B0502D53846FFF70E
:10175000C1FFAD0DAD0515F1A54F07D16846216A52
:10176000202200F082F9684600F0D8F80021182203
:10177000606AFFF78BFE204600212822FFF786FED5
:101780006662002001E04FF0FF3008B0BDE8F08154
:1017900038B5044618B1BDE8384000F00FB9054629
:1017A0000648204400F00AF92834002818BF4FF0FA
:1017B000FF35B4F5A07FF3D1284638BDB000001046
:1017C0002DE9F843C668414B044633400D46904628
:1017D000D0F81490002B75D0484600F03DF907462C
:1017E00000286FD1B8F1010F06D0B8F1020F08D070
:1017F000B8F1000F66D129E0204600F069F80544F1
:1018000024E0484600F025F9B0F1000ED4F80CC0F1
:1018100004DA4CF08001E160012754E02368606A3B
:101820001A46A3691946836893422CBFC9188918C0
:1018300023691CF0200FA1EB030303D042689342FD
:10184000B8BF13467345ACBFED187544002D39DBA6
:1018500016F4005F626A04D023689168994238BF29
:101860009360A1698D4210DB90682368D4F810E082
:10187000834238BF03465818CEEB0000854204DC93
:10188000D06801EB000C654506DB0023A3606360B4
:1018900046F0200655600FE06D1AB10744BF281AC4
:1018A000A060F20744BFC3EB0E035B19754448BF49
:1018B0006360256026F0200626F4032626F0400605
:1018C000E66000E002273846BDE8F8830300100018
:1018D000C3689A0705D1104B21221A604FF0FF30E0
:1018E000704713F4002F03F020030AD013B1436AAA
:1018F000586804E00268836900691344181A0138C3
:10190000704713B1436A5868704702688369006979
:101910001344181A704700BF9C00001010B504460D
:1019200000F006F801462046BDE8104000F097B8E8
:1019300010B5421C830705D010F8013B002BF9D1EC
:10194000801A10BD034650F8041BA1F1013424EAAB
:10195000010414F0803FF5D011F0FF0F0AD011F40C
:101960007F4F05D011F47F0F14BF0346033302E00D
:10197000023300E00133981A10BD000038B50C4B5B
:101980001A680AB90B4A1A60C41C1D6824F00304C3
:101990002C44204600F034F818B9054B28461C604A
:1019A00038BD054B0C221A604FF0FF3038BD00BF28
:1019B000F4010010F80100109C000010C26870B51E
:1019C00012F00303044619D0930604D5436A5D68F8
:1019D000FFF75EFD04E0056883692B4405695D1B24
:1019E000E368204623F44053E360FFF7A8FD064672
:1019F000294620460022FFF7E3FE3346184670BD15
:101A0000044B23B1984234BF002001207047184690
:101A1000704700BF00000000034613F0030F0ED113
:101A200001F0FF0141EA012141EA0141043A24BFEA
:101A300043F8041BB2F10402F9D202F10402013AA4
:101A400024BF03F8011BFAE77047FEE74FF0FF30B1
:101A500070474FF0FF3070474FF0FF3070474FF046
:101A6000FF3070474FF0FF3070474FF0FF30704746
:101A700010467047000A0000080A0000200A000013
:101A8000280A0000B0080000B8090000D00A0000D1
:101A900001090000090900002109000041090000B6
:101AA000490900005109000071090000790900008E
:101AB0008109000089090000D90900001A08000006
:101AC0007808000022080000800800008808000054
:101AD000720077002A2A2A205F437379735F616C52
:101AE0006C6F63206661696C65640A00A086010002
:101AF0000100000001000000010000001A000000C9
:101B000017000000140000000000000000000000AA
:101B100000000000010000000100000001000000C2
:101B2000000000000000000000000000180000009D
:101B3000150000001200000000000000000000007E
:101B40000000000001000000010000000100000092
:101B500013000000160000001900000096000000AD
:101B6000B40000001E00000014000000400100004E
:00000001FF
