:100000000080001071010000E9010000F101000012
:10001000F90100000102000009020000B274FFEFC4
:1000200000000000000000000000000011020000BD
:100030001902000000000000210200002902000057
:1000400031020000310200003102000031020000E4
:1000500031020000310200003102000031020000D4
:1000600031020000310200003102000031020000C4
:1000700031020000310200003102000031020000B4
:1000800031020000310200003102000031020000A4
:100090003102000031020000310200003102000094
:1000A0003102000031020000310200003102000084
:1000B0003102000031020000310200003102000074
:1000C000310200003102000031020000241700005C
:1000D00000000010000000002417000000C00720EE
:1000E00000000000000000101400000000C0072005
:1000F0000000000080B489B000AFF860B9607A6099
:10010000BB68FB61FB68BB6100237B610AE0FB69A4
:100110001A1DFA61BA69111DB96112681A607B690A
:1001200004337B617A697B689A42F0D32437BD46F9
:100130005DF8047B704700BF80B485B000AF786085
:1001400039607B68FB600023BB6007E0FB681A1D19
:10015000FA6000221A60BB680433BB60BA683B686F
:100160009A42F3D31437BD465DF8047B704700BF55
:1001700080B584B000AF194BFB6013E0FB681A1D1B
:10018000FA601B68BB60FB681A1DFA601B687B6025
:10019000FB681A1DFA601B683B60B86879683A68AA
:1001A000FFF7A8FFFB680E4A9342E7D30DE0FB6818
:1001B0001A1DFA601B687B60FB681A1DFA601B68D9
:1001C0003B6078683968FFF7B7FFFB68054A9342E0
:1001D000EDD300F0C1FD01F08BFAFEE7CC0000008A
:1001E000E4000000F400000080B400AFFEE700BFB0
:1001F00080B400AFFEE700BF80B400AFFEE700BFF1
:1002000080B400AFFEE700BF80B400AFFEE700BFE0
:1002100080B400AFFEE700BF80B400AFFEE700BFD0
:1002200080B400AFFEE700BF80B400AFFEE700BFC0
:1002300080B400AFFEE700BFFFFFFFFFFFFFFFFF3F
:10024000FFFFFFFFFFFFFFFFFFFFFFFFFFFFFFFFBE
:10025000FFFFFFFFFFFFFFFFFFFFFFFFFFFFFFFFAE
:10026000FFFFFFFFFFFFFFFFFFFFFFFFFFFFFFFF9E
:10027000FFFFFFFFFFFFFFFFFFFFFFFFFFFFFFFF8E
:10028000FFFFFFFFFFFFFFFFFFFFFFFFFFFFFFFF7E
:10029000FFFFFFFFFFFFFFFFFFFFFFFFFFFFFFFF6E
:1002A000FFFFFFFFFFFFFFFFFFFFFFFFFFFFFFFF5E
:1002B000FFFFFFFFFFFFFFFFFFFFFFFFFFFFFFFF4E
:1002C000FFFFFFFFFFFFFFFFFFFFFFFFFFFFFFFF3E
:1002D000FFFFFFFFFFFFFFFFFFFFFFFFFFFFFFFF2E
:1002E000FFFFFFFFFFFFFFFFFFFFFFFFFFFFFFFF1E
:1002F000FFFFFFFFFFFFFFFFFFFFFFFFFFFFFFFF0E
:1003000080B483B000AF78600B46FB701346BB70BF
:10031000FB785B017A681344BA78012101FA02F292
:100320009A610C37BD465DF8047B704780B483B09A
:1003300000AF78600B46FB701346BB70FB785B0127
:100340007A681344BA78012101FA02F2DA610C37B3
:10035000BD465DF8047B704780B58AB000AF0023CE
:100360003B7700237B770023BB770023FB770023B9
:100370003B7500237B750023BB750023FB750023B1
:100380003B7600237B76FF2387F8233000237B62B4
:10039000294A07F10C0392E803001860043319702E
:1003A000264A3B1D92E8030018600433197000F0E0
:1003B00043FC00F05DFC00F07DF9012000F0BAFA8A
:1003C0003B1D184600F052FA07F10C0301201946B4
:1003D00000F06CFA00F0D6F900F00CFA0346002B9E
:1003E00016D007F11C031846042100F02DFA3B7FBC
:1003F0007B627B6A1B027A7F13437B627B6A1B02F0
:10040000BA7F13437B627B6A1B02FA7F13437B62D2
:100410007B6A0B4A934204D10A4800211622FFF757
:1004200085FF7B6A084A934204D1064800211622C0
:10043000FFF766FFD0E700BFF4160000FC160000CF
:10044000DDCCBBAA00C009202301FFEE80B483B03D
:1004500000AF78600B46FB701346BB70FB785B0106
:100460007A681344BA78012101FA02F29A610C37D2
:10047000BD465DF8047B704780B483B000AF786000
:100480000B46FB701346BB70FB785B017A68134424
:10049000BA78012101FA02F2DA610C37BD465DF843
:1004A000047B704780B500AF024800210622FFF7A9
:1004B000E3FF80BD00C0092080B500AF02480021E5
:1004C0000622FFF7C3FF80BD00C0092080B584B0BD
:1004D00000AF0346FB71FFF7E5FFFB7903F01F0355
:1004E000DBB2184600F014FCFF2000F011FC0346BC
:1004F000FB73FFF7E1FFFB7B18461037BD4680BD5D
:1005000080B584B000AF03463960FB711346BB7100
:10051000FFF7C8FFFB7903F01F03DBB243F02003B2
:10052000DBB2184600F0F4FB0346FB730AE03B68BD
:100530001B78184600F0ECFB3B6801333B60BB794D
:10054000013BBB71BB79002BF1D1FFF7B5FFFB7B02
:1005500018461037BD4680BD80B584B000AF034655
:100560000A46FB711346BB71FFF79CFFFB7903F052
:100570001F03DBB243F02003DBB2184600F0C8FBD8
:100580000346FB73BB79184600F0C2FBFFF794FFEC
:10059000FB7B18461037BD4680BD00BF80B584B0D8
:1005A00000AF78600B46FB707B68FB600023FB723A
:1005B0001E4B1B78FA789A4202D91C4B1B78FB70B1
:1005C0001B4B1B78002B05D0184B1A78FB78D31ADD
:1005D000FB7201E00023FB72FFF764FF612000F073
:1005E00097FB0346BB720CE0FF2000F091FB034633
:1005F0001A46FB681A70FB680133FB60FB78013B0D
:10060000FB70FB78002BEFD105E0FF2000F080FBB2
:10061000FB7A013BFB72FB7A002BF6D1FFF74CFF14
:10062000BB7A18461037BD4680BD00BF10000010D1
:100630000100001080B500AFE22000F00BF8034687
:10064000184680BD80B500AFE12000F003F80346F6
:10065000184680BD80B584B000AF0346FB71FFF73C
:1006600021FFFB79184600F053FB0346FB73FFF7AD
:1006700023FFFB7B18461037BD4680BD80B500AF19
:10068000FF20FFF7E7FF0346184680BD80B584B022
:1006900000AF0346FB717F23FB73FA7BFB79934228
:1006A00028BF1346DBB205201946FFF755FF103768
:1006B000BD4680BD80B582B000AFFF23FB712B48E3
:1006C00000210522FFF7D8FE284800210622FFF767
:1006D000BDFE04204F21FFF73FFF002000F02AF964
:1006E000002000F05FF9022000F088F91C200021B2
:1006F000FFF732FF4C20FFF7C9FF502000F008FB46
:10070000732000F005FB194800210622FFF79EFE2A
:1007100000F054F8FF23FB7102E0FB79013BFB7111
:10072000FB79002BF9D1FF23FB7102E0FB79013B40
:10073000FB71FB79002BF9D1FFF77CFFFFF782FFFC
:1007400007207021FFF708FF094B05221A70094B9B
:1007500000221A70084B04221A70084B00221A70EB
:10076000074B00221A700837BD4680BD00C0092023
:10077000000000100900001010000010010000101F
:100780000400001080B500AF0020FFF79FFE034675
:1007900043F00103DBB200201946FFF7DDFE07201E
:1007A0007021FFF7D9FE044800210522FFF74EFE15
:1007B000FFF740FF80BD00BF00C0092080B582B0B8
:1007C00000AF0020FFF782FE0346FB71FB7903F0C8
:1007D0000203002B0AD10020FFF778FE034643F006
:1007E0000203DBB200201946FFF7B6FE0837BD460C
:1007F00080BD00BF80B500AF002000F003F80346C5
:10080000184680BD80B584B000AF78601720FFF730
:100810005DFE034603F00103002B10D17B68002B23
:100820000BD0FFF72BFF0346FB73FB7B9B08DBB270
:1008300003F00703DAB27B681A70012300E000239B
:1008400018461037BD4680BD80B582B000AF7860D5
:100850000B46FB70FB7878681946FFF79FFE072070
:100860007021FFF779FE0837BD4680BD80B582B0A4
:1008700000AF78600B4B1B780A2079681A46FFF7A7
:100880003FFE084B1B78102079681A46FFF738FEA8
:10089000054B1B7811201946FFF75EFE0837BD4651
:1008A00080BD00BF000000101000001080B582B0B5
:1008B00000AF03463960FB71FB79062B2CD8FB791E
:1008C000012B0AD1FB79164AD25C164B1B781046D5
:1008D00039681A46FFF714FE07E0FB79104AD35C2B
:1008E000184639680122FFF70BFEFB790E4AD25CED
:1008F0000E4B1B7810461946FFF72EFE0220FFF71D
:10090000E5FD03461946FB79094AD35C0B43DBB28C
:1009100002201946FFF720FE0837BD4680BD00BF04
:100920000C17000000000010141700001000001049
:100930000417000080B584B000AF0346FB710620A9
:10094000FFF7C4FD0346FB73FB7B23F00603FB7339
:10095000FB79032B04D1FB7B43F00603FB7319E007
:10096000FB79022B04D1FB7B43F00403FB7311E002
:10097000FB79012B04D1FB7B43F00203FB7309E0FD
:10098000FB79002B06D0FB79042B03D1FB7B43F0D2
:100990000603FB73FB7B06201946FFF7DDFD1037CE
:1009A000BD4680BD80B584B000AF0346FB71002317
:1009B000FB730620FFF78AFD0346BB73BB7B23F066
:1009C0000803BB73FB79012B03D1BB7B43F0080306
:1009D000BB73BB7B06201946FFF7BEFD0620FFF761
:1009E00075FD03461A46BB7B934201D10123FB737D
:1009F000FB7B18461037BD4680BD00BF80B584B074
:100A000000AF0346FB710020FFF760FD034623F0B3
:100A10000C03FB73FB79002B0FD0FB79012B04D166
:100A2000FB7B43F00803FB7307E0FB7B43F0080309
:100A3000FB73FB7B43F00403FB73FB7B0020194635
:100A4000FFF78AFD1037BD4680BD00BF80B483B07C
:100A500000AF78600B46FB701346BB70FA78F978EC
:100A60007B681A3153F82110BB78012000FA03F398
:100A7000DB4319407B681A3243F822100C37BD461D
:100A80005DF8047B704700BF80B483B000AF78602E
:100A90000B46FB701346BB70FB785B017A6813440E
:100AA000FA78520179680A441168BA78012000FA8C
:100AB00002F20A431A600C37BD465DF8047B7047AA
:100AC00080B483B000AF78600B46FB701346BB70F8
:100AD000FB785B017A681344FA78520179680A441A
:100AE0001168BA78012000FA02F2D2430A401A6073
:100AF0000C37BD465DF8047B704700BF80B582B0FF
:100B000000AF7860084611461A460346FB700B4654
:100B1000BB7013467B707B78002B07D0FA78BB78CC
:100B2000786811461A46FFF7AFFF06E0FA78BB78FF
:100B3000786811461A46FFF7C3FF0837BD4680BDE7
:100B400080B582B000AF7860084611461A46034669
:100B5000FB700B46BB7013467B70F978BA787B78D4
:100B60007868FFF7CBFF0837BD4680BD80B483B0FF
:100B700000AF78600B46FB701346BB70FB785B01DF
:100B80007A681344BA78012101FA02F29A610C37AB
:100B9000BD465DF8047B704780B483B000AF7860D9
:100BA0000B46FB701346BB70FB785B017A681344FD
:100BB000BA78012101FA02F2DA610C37BD465DF81C
:100BC000047B704780B483B000AF78607B685B685B
:100BD00043F002027B685A600C37BD465DF8047B27
:100BE000704700BF80B485B000AFF860B9607A602C
:100BF0003B60FB681B6823F0FF02BB681A437B68FD
:100C00001A433B681A43FB681A601437BD465DF807
:100C1000047B704780B483B000AF786039607B6834
:100C20005B6823F004023B681A437B685A600C3708
:100C3000BD465DF8047B704780B500AF0B480021CE
:100C400016220123FFF77CFF08480021052201231B
:100C5000FFF776FF054800210522FFF79DFF0348B7
:100C600000211622FFF798FF80BD00BF00C00920B9
:100C700080B582B002AF00230093214800210622F4
:100C8000002300F071FA1F4800210622FFF7FCFE46
:100C90001B4800210622FFF7D9FE1A480021062230
:100CA000FFF764FF02230093154800210722082361
:100CB00000F05AFA02230093114800210922082368
:100CC00000F052FA022300930D4800210822082365
:100CD00000F04AFA0A2000F03DF90B480021FFF726
:100CE00099FF0948072100220023FFF77BFF0648F0
:100CF000064900F03DFC0448FFF764FFBD4680BD97
:100D000000C0024000C009200000034040420F0024
:100D100080B588B000AF0346FB710D480021062264
:100D2000FFF73AFF07F11F033B61FB1DBB60012387
:100D3000BB6100237B610023FB6007F108030548CA
:100D4000194600F091FBFB7F18462037BD4680BD59
:100D500000C009200000034080B582B000AF054B01
:100D60007B60054A7B681A6000F0BCFC0837BD4612
:100D700080BD00BF08ED00E00000000080B400AFBF
:100D8000074BD3F8883003F08073002B14BF012386
:100D90000023DBB21846BD465DF8047B704700BFF8
:100DA00000C00F4080B400AF074BD3F8883003F089
:100DB0000073002B14BF01230023DBB21846BD468D
:100DC0005DF8047B704700BF00C00F4080B483B063
:100DD00000AF0346FB71094AFB795B01134488337A
:100DE000AA225A60054AFB795B01134488335522D5
:100DF0005A600C37BD465DF8047B704700C00F4059
:100E000080B400AF054BD3F80C31DBB203F0030321
:100E1000DBB21846BD465DF8047B704700C00F404A
:100E200080B400AF034B1B681846BD465DF8047BD9
:100E3000704700BF1C17000080B400AF024B18467B
:100E4000BD465DF8047B704700093D0080B400AFEB
:100E5000034B1B681846BD465DF8047B704700BF16
:100E60002017000080B500AF00F006F903461846D1
:100E700080BD00BF80B584B000AF03463960FB7110
:100E80000C4AFB7904335B0113441B68FB60FA686E
:100E90003B681343FB60074AFB7904335B0113444F
:100EA000FA681A60FB791846FFF790FF1037BD46C5
:100EB00080BD00BF00C00F4080B584B000AF0346C6
:100EC0003960FB710C4AFB7904335B0113441B68E6
:100ED000FB603B68DB43FA681340FB60064AFB7922
:100EE00004335B011344FA681A60FB791846FFF774
:100EF0006DFF1037BD4680BD00C00F4080B586B085
:100F000000AF0346B9607A60FB73FB7B002B05D111
:100F10007B681A04BB6813437B6104E07B685A0159
:100F2000BB6813437B610A4AFB7B04335B011344B8
:100F30007A695A60064AFB7B04335B011344012241
:100F40001A60FB7B1846FFF741FF1837BD4680BD8E
:100F500000C00F4080B485B000AF0346FB71FB7941
:100F6000FB600849074BD3F8C430FA68012000FA47
:100F700002F21343C1F8C4301437BD465DF8047B58
:100F8000704700BF00C00F4080B582B000AFFFF7D0
:100F900009FF0346002B02D00123FB7101E000236F
:100FA000FB71FB7918460837BD4680BD80B483B01D
:100FB00000AF7860044A7B68C2F804310C37BD4644
:100FC0005DF8047B704700BF00C00F4080B400AFE5
:100FD000044BD3F80431DBB201331846BD465DF84B
:100FE000047B704700C00F4080B487B000AF034659
:100FF000FB7101237B61FB795B003B613B6903F083
:101000001F03FB603B695B093B611A4A3B696A331A
:1010100052F823307B61FB687A6922FA03F303F00C
:1010200003037B617B69002B02D104237B6119E000
:101030007B69012B02D101237B6113E07B69022BC9
:1010400002D102237B610DE0FB790D2B05D0FB79EA
:101050000E2B02D0FB790F2B02D106237B6101E01E
:1010600008237B617B6918461C37BD465DF8047B0D
:10107000704700BF00C00F4080B500AFFFF7C0FE53
:101080000346012B07D0022B09D0002B0BD1FFF711
:10109000D3FE034608E0FFF7C3FE034604E0FFF774
:1010A000D5FE034600E00023184680BD80B584B01D
:1010B00000AF0023FB60FFF761FE0346002B18D052
:1010C0000E4BD3F88430C3F30E030133BB600B4BDC
:1010D000D3F884301B0CDBB201337B60FFF7C2FE18
:1010E0000246BB6803FB02F35A007B68B2FBF3F3D2
:1010F000FB60FB6818461037BD4680BD00C00F403E
:1011000080B500AFFFF740FF0346002B05D0012B51
:1011100007D1FFF7CBFF034604E0FFF7ADFF03461F
:1011200000E00023184680BD98B500AFFFF7E8FF48
:101130000446FFF74BFF0346B4FBF3F3184698BD94
:1011400090B583B000AF0346FB71FFF7EDFF044697
:10115000FB791846FFF748FF0346B4FBF3F3184644
:101160000C37BD4690BD00BF80B487B000AFF860BB
:101170007B600B46FB721346BB72BB7A03F00F0316
:10118000DBB25B00FB75FB7A5B00DAB2BB7A1B0952
:10119000DBB21344BB75BA7DFB6853F82220FB7D9C
:1011A000032101FA03F3DB4313403B61BA7D97F857
:1011B0002010FB7D01FA03F319463B691943FB68D4
:1011C00043F82210BA7DFB68103253F82220FB7DD1
:1011D000032101FA03F3DB4313403B61BA7DFB7D3E
:1011E000796899403B691943FB68103243F8221033
:1011F0001C37BD465DF8047B704700BF80B483B0E8
:1012000000AF78600B46FB707B68DA68FB781340B0
:10121000002B14BF01230023DBB218460C37BD4658
:101220005DF8047B704700BF80B483B000AF786086
:101230000B46FB707B689A69FB781340002B14BF48
:1012400001230023DBB218460C37BD465DF8047B52
:10125000704700BF80B483B000AF78607B681B68C4
:10126000DBB203F00F03DBB218460C37BD465DF866
:10127000047B704780B483B000AF78600B46FB708E
:10128000FA787B681A620C37BD465DF8047B7047BC
:1012900080B483B000AF78607B689B689BB21846CF
:1012A0000C37BD465DF8047B704700BF80B483B047
:1012B00000AF78600B467B807A887B689A600C3739
:1012C000BD465DF8047B704780B582B000AF7860A2
:1012D00039603B681B68002B0BD03B681B681A46C3
:1012E0003B685B6813441B8878681946FFF7DEFF8C
:1012F00004E078684FF6FF71FFF7D8FF3B685B6842
:101300009A1C3B685A600837BD4680BD80B582B0E4
:1013100000AF786039603B681B68002B0CD03B68DD
:101320001B681A463B685B6813441B789BB278685D
:101330001946FFF7BBFF03E07868FF21FFF7B6FF10
:101340003B685B685A1C3B685A600837BD4680BDE5
:1013500080B584B000AF7860396016E07868FFF738
:1013600097FF0346FB813B689B68002B08D03B68D6
:101370009B681A463B68DB6813441A46FB89138056
:101380003B68DB689A1C3B68DA6078680421FFF7E9
:1013900035FF0346012B05D13B68DA683B681B69C2
:1013A0009A42DBD31037BD4680BD00BF80B584B004
:1013B00000AF7860396016E07868FFF769FF034690
:1013C000FB813B689B68002B08D03B689B681A46F2
:1013D0003B68DB681344FA89D2B21A703B68DB6859
:1013E0005A1C3B68DA6078680421FFF707FF034660
:1013F000012B05D13B68DA683B681B699A42DBD355
:101400001037BD4680BD00BF80B485B000AF7860A6
:101410007B68074A934202D11523FB7301E00A233C
:10142000FB73FB7B18461437BD465DF8047B7047A1
:101430000080084080B487B000AFF860B9607A607F
:10144000FB681B6823F47F437B61BB681B029AB275
:101450007B691A43FB681A60FB687A681A611C375B
:10146000BD465DF8047B704780B582B000AF786000
:10147000396002E07868FFF70BFF78680421FFF716
:10148000BDFE0346002BF5D178680321FFF7F2FE7D
:101490007868FFF7DFFE0346072B2BD91DE078683D
:1014A0000221FFF7ABFE0346012B09D13B685A68C6
:1014B0003B681B699A4203D278683968FFF704FFDA
:1014C00078680121FFF7B0FE0346012B01D100230C
:1014D0004AE078683968FFF73BFF3B68DA683B68A9
:1014E0001B699A42DBD33B685A683B681B699A4286
:1014F000D5D32AE01DE078680221FFF77FFE03467E
:10150000012B09D13B685A683B681B699A4203D298
:1015100078683968FFF7FAFE78680121FFF784FEE2
:101520000346012B01D100231EE078683968FFF7DC
:101530003DFF3B68DA683B681B699A42DBD33B6836
:101540005A683B681B699A42D5D33B681B68002BDD
:1015500002D03B685B6807E03B689B68002B02D0C9
:101560003B68DB6800E0002318460837BD4680BDB5
:1015700080B586B000AF786039607868FFF744FFC7
:1015800003461846FFF7DCFDB86000237B614FF08F
:10159000FF333B610223FB6017E07B690133FA688C
:1015A00002FB03F3BA68B2FBF3F33B613A693B68B1
:1015B0009A420AD97B6901337B617B69FF2B04D98D
:1015C00000237B61FB680233FB603A693B689A4207
:1015D000E3D878687969FA68FFF72CFF1837BD46B9
:1015E00080BD00BF80B400AF074BD3F8883003F054
:1015F0008073002B14BF01230023DBB21846BD46C5
:101600005DF8047B704700BF00C00F4080B400AF9E
:10161000074BD3F8883003F08063002B14BF0123FD
:101620000023DBB21846BD465DF8047B704700BF5F
:1016300000C00F4080B400AF074BD3F8883003F0F0
:101640000073002B14BF01230023DBB21846BD46F4
:101650005DF8047B704700BF00C00F4080B483B0CA
:1016600000AF0346FB71044AFB79C2F80C310C371A
:10167000BD465DF8047B704700C00F4080B500AFE9
:10168000FFF7D8FF0346002B03D000200221FFF70D
:1016900013FCFFF7A7FF0346002B03D00020012116
:1016A000FFF70AFC0020FFF781FC0020FFF7D6FFC0
:1016B00000202C210022FFF721FC00200121FFF750
:1016C000D9FB0220FFF772FC00BFFFF79FFF034624
:1016D00083F00103DBB2002BF7D100200221FFF7DA
:1016E000C9FB80BD80B500AFFFF7C8FF80BD00BF5C
:1016F000FEF732BE65646F4E3100000065646F4EC8
:101700003200000001020408102000000A0B0C0D3A
:101710000E0F00001112131415160000001BB70065
:041720000080000045
:00000001FF
