:100000000080001071010000E9010000F101000012
:10001000F90100000102000009020000B274FFEFC4
:1000200000000000000000000000000011020000BD
:100030001902000000000000210200002902000057
:1000400031020000310200003102000031020000E4
:1000500031020000310200003102000031020000D4
:10006000310200009D10000031020000310200004A
:1000700031020000310200003102000031020000B4
:1000800031020000310200003102000031020000A4
:10009000310200009D110000310200003102000019
:1000A0003102000031020000310200003102000084
:1000B0003102000031020000310200003102000074
:1000C0003102000031020000310200006C1B000010
:1000D000000000109C0000006C1B000000C0072006
:1000E000000000009C0000104C00000000C0072031
:1000F0000000000080B489B000AFF860B9607A6099
:10010000BB68FB61FB68BB6100237B610AE0FB69A4
:100110001A1DFA61BA69111DB96112681A607B690A
:1001200004337B617A697B689A42F0D32437BD46F9
:100130005DF8047B704700BF80B485B000AF786085
:1001400039607B68FB600023BB6007E0FB681A1D19
:10015000FA6000221A60BB680433BB60BA683B686F
:100160009A42F3D31437BD465DF8047B704700BF55
:1001700080B584B000AF194BFB6013E0FB681A1D1B
:10018000FA601B68BB60FB681A1DFA601B687B6025
:10019000FB681A1DFA601B683B60B86879683A68AA
:1001A000FFF7A8FFFB680E4A9342E7D30DE0FB6818
:1001B0001A1DFA601B687B60FB681A1DFA601B68D9
:1001C0003B6078683968FFF7B7FFFB68054A9342E0
:1001D000EDD301F07DF801F02DFBFEE7CC0000002F
:1001E000E4000000F400000080B400AFFEE700BFB0
:1001F00080B400AFFEE700BF80B400AFFEE700BFF1
:1002000080B400AFFEE700BF80B400AFFEE700BFE0
:1002100080B400AFFEE700BF80B400AFFEE700BFD0
:1002200080B400AFFEE700BF80B400AFFEE700BFC0
:1002300080B400AFFEE700BFFFFFFFFFFFFFFFFF3F
:10024000FFFFFFFFFFFFFFFFFFFFFFFFFFFFFFFFBE
:10025000FFFFFFFFFFFFFFFFFFFFFFFFFFFFFFFFAE
:10026000FFFFFFFFFFFFFFFFFFFFFFFFFFFFFFFF9E
:10027000FFFFFFFFFFFFFFFFFFFFFFFFFFFFFFFF8E
:10028000FFFFFFFFFFFFFFFFFFFFFFFFFFFFFFFF7E
:10029000FFFFFFFFFFFFFFFFFFFFFFFFFFFFFFFF6E
:1002A000FFFFFFFFFFFFFFFFFFFFFFFFFFFFFFFF5E
:1002B000FFFFFFFFFFFFFFFFFFFFFFFFFFFFFFFF4E
:1002C000FFFFFFFFFFFFFFFFFFFFFFFFFFFFFFFF3E
:1002D000FFFFFFFFFFFFFFFFFFFFFFFFFFFFFFFF2E
:1002E000FFFFFFFFFFFFFFFFFFFFFFFFFFFFFFFF1E
:1002F000FFFFFFFFFFFFFFFFFFFFFFFFFFFFFFFF0E
:1003000080B483B000AF0346FB71084997F907300A
:100310005B09FA7902F01F02012000FA02F241F8AB
:1003200023200C37BD465DF8047B704700E100E0F8
:1003300080B483B000AF7860084611461A46034681
:10034000FB700B46BB7013467B707B78002B0FD085
:10035000FB785B017A681344FA78520179680A44A1
:100360009169BA78012000FA02F20A439A610EE01C
:10037000FB785B017A681344FA78520179680A4481
:10038000D169BA78012000FA02F20A43DA610C3727
:10039000BD465DF8047B704780B584B000AFF8605F
:1003A000B96011461A460B46FB711346BB71BB6818
:1003B000D9B2FA79BB79F868FFF7BAFF1037BD46B2
:1003C00080BD00BF80B483B000AF78600B46FB7087
:1003D0001346BB70FB785B017A6813445A69BB789B
:1003E00022FA03F303F00103002B14BF01230023BF
:1003F000DBB218460C37BD465DF8047B704700BF82
:1004000080B584B000AFF860B9601346FB71BB687B
:10041000DAB2FB79F86811461A46FFF7D3FF0346B4
:1004200018461037BD4680BD80B483B000AF7860F9
:100430000B46FB701346BB70FB785B017A68134474
:10044000FA78520179680A441168BA78012000FAF2
:1004500002F20A431A600C37BD465DF8047B704710
:1004600080B483B000AF78600B46FB701346BB705E
:10047000FB785B017A681344FA78520179680A4480
:100480001168BA78012000FA02F2D2430A401A60D9
:100490000C37BD465DF8047B704700BF80B582B065
:1004A00000AF7860084611461A460346FB700B46BB
:1004B000BB7013467B707B78002B07D0FA78BB7833
:1004C000786811461A46FFF7AFFF06E0FA78BB7866
:1004D000786811461A46FFF7C3FF0837BD4680BD4E
:1004E00080B582B000AF7860084611461A460346D0
:1004F000FB700B46BB7013467B70F978BA787B783B
:100500007868FFF7CBFF0837BD4680BD80B483B065
:1005100000AF78600B46FB707B681B6897F903207F
:10052000032A05DC97F90320012101FA02F205E014
:1005300097F903200432012101FA02F21340002B43
:1005400014BF01230023DBB218460C37BD465DF80B
:10055000047B704780B483B000AF78600B46FB70BB
:1005600097F90330032B06DC97F90330012202FAD6
:1005700003F31A4606E097F903300433012202FA26
:1005800003F31A467B681A600C37BD465DF8047B9E
:10059000704700BF80B483B000AF78607B685B6851
:1005A00043F001027B685A607B685B6843F0080295
:1005B0007B685A600C37BD465DF8047B704700BF0E
:1005C00080B483B000AF786039607B683A68DA60E5
:1005D0000C37BD465DF8047B704700BF80B485B022
:1005E00000AFF8600B467A60FB7297F90B30062B70
:1005F0002CD801A252F823F0150600001D060000B9
:10060000250600002D060000350600003D0600000E
:1006100045060000FB687A689A6118E0FB687A6812
:10062000DA6114E0FB687A681A6210E0FB687A68A5
:100630005A620CE0FB687A681A6408E0FB687A6822
:100640005A6404E0FB687A689A6400E000BF1437DB
:10065000BD465DF8047B704780B483B000AF78601E
:100660000B46FB707B685B69FA7802F00702510069
:10067000FA7802F007020A44012101FA02F21A4351
:100680007B685A610C37BD465DF8047B704700BF3C
:1006900080B483B000AF78600B46FB707B6859690B
:1006A00097F9032013465B0013440133012202FA39
:1006B00003F341EA03027B685A610C37BD465DF8DB
:1006C000047B704780B483B000AF78600B46FB704A
:1006D0007B68596997F9032013465B001344013383
:1006E000012202FA03F3DB4301EA03027B685A6149
:1006F0000C37BD465DF8047B704700BF80B483B003
:1007000000AF78600B46FB707B68596997F903204E
:1007100013465B0013440233012202FA03F3DB4366
:1007200001EA03027B685A610C37BD465DF8047B21
:10073000704700BF80B582B000AF0023FB71254831
:100740000021FFF73DFF234800214FF47A72FFF7A5
:1007500045FF20480021FFF77FFF1E480021FFF7DB
:1007600097FF1C480021FFF7C9FF0523FB7122E01A
:10077000FB79184819460022002300F09FFEFB7900
:100780005BB2144819460A22FFF728FFFB795BB2D7
:1007900010481946FFF760FFFB795BB20D48194618
:1007A000FFF790FFFB795BB20A481946FFF7A6FFF7
:1007B000FB790133FB71FB79062BD9D9054800F091
:1007C00061FE0448FFF7E6FE0920FFF799FD0837B0
:1007D000BD4680BD0080014080B500AF7948022150
:1007E00000220123FFF77CFE764802210322012329
:1007F000FFF776FE7348022101220123FFF770FE06
:100800007048022104220123FFF76AFE6D4802218D
:1008100002220123FFF764FE6A4802210522012318
:10082000FFF75EFE6748002116220123FFF758FEFE
:100830006448002113220123FFF752FE6148002182
:1008400015220123FFF74CFE5E48002112220123EE
:10085000FFF746FE5B48002114220123FFF740FE0C
:100860005848002111220123FFF73AFE5548022182
:1008700003220023FFF790FD5248022101220123A9
:10088000FFF78AFD4F48022104220023FFF784FD71
:100890004C48022102220123FFF77EFD4948022134
:1008A00005220023FFF778FD46480221002201239C
:1008B000FFF772FD4348002113220023FFF76CFD70
:1008C0004048002115220123FFF766FD3D48002125
:1008D00012220023FFF760FD3A4800211422012371
:1008E000FFF75AFD3748002111220023FFF754FD7E
:1008F0003448002116220123FFF74EFD324B1A68BF
:1009000042F040021A60304B1A6842F080021A60CE
:100910002D4B1A6842F480721A602C4B1A6842F010
:1009200040021A60294B1A6842F080021A60274B75
:100930001A6842F480721A60254B1A6842F4004229
:100940001A60234B1A6842F480321A601E4B1A68F0
:1009500042F400721A601F4B1A6842F400421A6097
:100960001C4B1A6842F480321A60184B1A6842F421
:1009700000721A601520FFF7C3FC124802210622FC
:100980000023FFF7ADFD0F48022107220023FFF7E8
:10099000A7FD0C48022108220023FFF7A1FD09480A
:1009A00000210F220023FFF79BFD064800211022A3
:1009B0000023FFF795FD0348022109220023FFF7DA
:1009C0008FFD80BD00C00920B0800240B48002408D
:1009D000908002409480024080B582B000AF00F069
:1009E000B5FC0023FB710023BB7100237B71FF2347
:1009F0003B7100F0B7F8FFF7EFFEFFF79BFE00F04A
:100A00001DF90123FB714F4800211222FFF7F8FC6A
:100A1000034683F00103DBB2002B17D049480021C5
:100A20000122FFF7EDFC034683F00103DBB2002B4C
:100A30000CD000F097F80023FB710023BB7100235A
:100A40007B71FF233B71404B404A1A603D480021B7
:100A50001222FFF7D5FC034683F00103DBB2002B23
:100A600018D0394B1B68002B14D1BB79002B04D153
:100A700000F0E4F80123FB7109E0354B1B88142BCF
:100A800005D9334B1B88053B9AB2314B1A802E4B4C
:100A90002E4A1A602B4800210122FFF7B1FC0346C1
:100AA00083F00103DBB2002B14D0274B1B68002B13
:100AB00010D1274B1B88B3F5757F08D2BB79012B6A
:100AC00005D1234B1B8805339AB2214B1A801E4B4C
:100AD0001E4A1A601C4B1B68002B04D01A4B1B6863
:100AE000013B194A13607B79002B18D1194B1B6805
:100AF0001A46194B1B689A4223D8FB79002B20D049
:100B000000F040F900F008FA0123BB713B79013B8A
:100B10003B713B79002B14D101237B7173E70F4BA1
:100B20001B78002B04D000F02DF90C4B00221A701A
:100B30000B4B1B78002B04D000F0EEF9084B002281
:100B40001A7060E700C0092000000010A0860100B4
:100B5000DC000010E40000109C000010CC0000102D
:100B6000CD00001080B500AF2E4B5B682E4A13609D
:100B70002C4BDB68184600F09FFF03469AB22B4BC4
:100B80001A802A4B1A882A4B1A80284B1A88294B1C
:100B90001A802948022103220023FFF7FDFB264883
:100BA000022101220123FFF7F7FB2348022104223F
:100BB0000023FFF7F1FB2048022102220123FFF767
:100BC000EBFB1D48022105220023FFF7E5FB1A4835
:100BD000022100220123FFF7DFFB17480021132227
:100BE0000023FFF7D9FB1448002115220123FFF74A
:100BF000D3FB1148002112220023FFF7CDFB0E4842
:100C0000002114220123FFF7C7FB0B48002111220A
:100C10000023FFF7C1FB0848002116220123FFF73C
:100C2000BBFB80BD88000010E4000010DC00001059
:100C3000E0000010DE00001000C0092090B585B073
:100C400000AF0123FB60494B00221A6000F09AF8C4
:100C500000F062F90BE000BF454B1B681A46454B9C
:100C60001B689A42F8D800F08DF800F055F93F4B18
:100C70001B68092BEFDD404B1A693F4BDB681046C0
:100C8000194600F049FE03461C463B4B1B681846BC
:100C900000F026FF03462046194600F0DDFD03461E
:100CA000184600F009FF0346BB60334B5A68324BCD
:100CB0009B68D21A304B1B6892FBF3F37B600023D6
:100CC000FB602FE000BF2A4B1B681A46294B1B68AC
:100CD0009A42F8D800F056F800F01EF9264BDC686E
:100CE000FB68BA6802FB03F3184600F009FF0346ED
:100CF0002046194600F086FE0346184600F0DCFE4A
:100D000003469AB21D4B1A801B4B5B681946FB6861
:100D10007A6802FB03F3CB1A1A46154B1A60FB687C
:100D20000133FB60144B9A68114B1B689A42C9DB74
:100D3000124B96221A80114B1B88114805211A4626
:100D4000FFF74CFC0D4B1B880D4806211A46FFF798
:100D500045FC0B480521012200F0F6FB084806215E
:100D6000012200F0F1FB1437BD4690BDD800001001
:100D7000E40000109C00001088000010DC0000104F
:100D80000080014080B500AF574B1A88574B1B8835
:100D90009A420FD0544B1B88554805211A46FFF73D
:100DA0001DFC53480521012200F0CEFB4E4B1A8852
:100DB0004E4B1A804F4B1B68042B70D801A252F87F
:100DC00023F000BFD90D0000070E0000250E000023
:100DD000530E0000710E0000474B9A68474B9B680A
:100DE000DBB2474811461A460123FFF7D5FA424BBA
:100DF0001A68424B1B68DBB2414811461A46002371
:100E0000FFF7CAFA59E03F4B5A683F4B5B68DBB2C9
:100E10003B4811461A460023FFF7BEFA3B4B02221D
:100E20001A604AE0344B1A68344B1B68DBB2344812
:100E300011461A460123FFF7AFFA2F4B5A682F4B82
:100E40005B68DBB22E4811461A460023FFF7A4FA6E
:100E500033E02C4B9A682C4B9B68DBB22848114638
:100E60001A460023FFF798FA284B00221A6024E064
:100E7000214B5A68214B5B68DBB2214811461A4668
:100E80000123FFF789FA1C4B9A681C4B9B68DBB265
:100E90001B4811461A460023FFF77EFA0DE0194B56
:100EA0001A68194B1B68DBB2154811461A46002315
:100EB000FFF772FA154B01221A600E4B1B68042BC8
:100EC00008DD0C4B00221A60114B1B680133104ADD
:100ED000136004E0074B1B680133064A13600D4B97
:100EE00000221A6080BD00BFDC000010E00000108E
:100EF00000800140D00000102800001040000010C9
:100F000000C009200400001010000010A400001010
:100F1000D80000109C00001080B500AF544B1A8818
:100F2000544B1B889A420FD0514B1B8852480621C4
:100F30001A46FFF753FB50480621012200F004FB3C
:100F40004B4B1A884B4B1A804C4B1B68042B70D8A8
:100F500001A252F823F000BF6D0F00009B0F0000AC
:100F6000B90F0000E70F000005100000444B9A681D
:100F7000444B9B68DBB2444811461A460123FFF7F5
:100F80000BFA3F4B1A683F4B1B68DBB23E481146D9
:100F90001A460023FFF700FA59E03C4B5A683C4BD5
:100FA0005B68DBB2384811461A460023FFF7F4F9B4
:100FB000384B02221A604AE0314B1A68314B1B68E9
:100FC000DBB2314811461A460123FFF7E5F92C4BF5
:100FD0005A682C4B5B68DBB22B4811461A4600233B
:100FE000FFF7DAF933E0294B9A68294B9B68DBB2AB
:100FF000254811461A460023FFF7CEF9254B00225B
:101000001A6024E01E4B5A681E4B5B68DBB21E4818
:1010100011461A460123FFF7BFF9194B9A68194B7D
:101020009B68DBB2184811461A460023FFF7B4F953
:101030000DE0164B1A68164B1B68DBB212481146BE
:101040001A460023FFF7A8F9124B01221A600B4B36
:101050001B68042B03DD094B00221A6004E0074BD8
:101060001B680133054A13600B4B00221A6080BDD8
:10107000DC000010DE00001000800140D4000010F1
:10108000B40000107000001000C00920A80000107B
:1010900058000010A4000010A000001080B500AFA0
:1010A00035480021FFF732FA0346002B2DD0334B91
:1010B0001B680133314A1360314B1B680133304ADE
:1010C00013602D480021FFF745FA2E4B1B682E4A6E
:1010D00052F823102B4B1B682C4A52F82330DBB2FA
:1010E0002B481A460123FFF757F9264B1B68294A5C
:1010F00052F82310234B1B68274A52F82330DBB2E7
:1011000023481A460123FFF747F91B480521FFF73B
:10111000FDF90346002B13D017480521FFF71AFAF3
:10112000184B1B68184A52F82310164B1B68174AB5
:1011300052F82330DBB216481A460023FFF72CF989
:101140000D480621FFF7E2F90346002B13D00A48A9
:101150000621FFF7FFF90B4B1B680E4A52F82310CC
:10116000084B1B680C4A52F82330DBB208481A4679
:101170000023FFF711F980BD008001409C000010A2
:10118000A0000010A40000100400001010000010C7
:1011900000C00920A80000105800001080B400AF63
:1011A000434B1B689B0903F00103DBB2002B27D1E3
:1011B000404B1B689B0903F00103DBB2002B1FD1DE
:1011C0003B4B1B68DB0903F00103DBB2002B17D19B
:1011D000384B1B68DB0903F00103DBB2002B0FD196
:1011E000334B1B681B0A03F00103DBB2002B07D152
:1011F000304B1B681B0A03F00103DBB2002B11D03C
:101200002D4B1A6842F040021A602B4B1A6842F0CC
:1012100080021A60284B1A6842F480721A60274BC9
:1012200001221A70264B1B68DB0B03F00103DBB2B3
:10123000002B27D1234B1B68DB0B03F00103DBB230
:10124000002B1FD11E4B1B681B0C03F00103DBB2EC
:10125000002B17D11B4B1B681B0C03F00103DBB2E7
:10126000002B0FD1124B1B685B0A03F00103DBB2AA
:10127000002B07D10F4B1B685B0A03F00103DBB2A5
:10128000002B11D0104B1A6842F400421A600E4B2A
:101290001A6842F480321A60074B1A6842F40072EE
:1012A0001A600A4B01221A70BD465DF8047B704734
:1012B000A4800240A8800240AC800240CC00001014
:1012C00084800240888002408C800240CD00001063
:1012D00080B582B000AF054B7B60054A7B681A6021
:1012E00000F034F80837BD4680BD00BF08ED00E0CF
:1012F0000000000080B485B000AF0346FB71084BCE
:101300001B68C3F30B03FB60054AFB791B031946FB
:10131000FB680B4313601437BD465DF8047B7047D0
:1013200000C00F4080B500AF02480349172200F00B
:1013300079F880BD00C00240101B000080B500AFEE
:1013400000F096F90420FFF7D5FF80BD80B500AF0F
:10135000FFF7E8FFFFF7F2FF80BD00BF90B587B051
:1013600002AFF8607B600B46FB721346BB727B6872
:101370009C087B68DBB203F00303DBB2F97ABA7A2C
:101380000093F868234600F003F81437BD4690BD7B
:1013900080B487B000AFF8607B600B46FB721346E9
:1013A000BB72BB7A03F00F03DBB25B00FB75FB7A09
:1013B0005B00DAB2BB7A1B09DBB21344BB75BA7DA2
:1013C000FB6853F82220FB7D032101FA03F3DB4382
:1013D00013403B61BA7D97F82010FB7D01FA03F3BF
:1013E00019463B691943FB6843F82210BA7DFB6834
:1013F000103253F82220FB7D032101FA03F3DB4373
:1014000013403B61BA7DFB7D796899403B69194384
:10141000FB68103243F822101C37BD465DF8047B90
:10142000704700BF90B587B000AFF860B9607A60D0
:1014300000237B611FE07B699B00BA6813441B7823
:10144000C3F30203DBB219467B699B00BA681344FD
:101450001B78C3F3C403DBB21C467B699B00BA68EC
:1014600013441B68C3F31723F8682246FFF776FF7F
:101470007B6901337B617A697B689A42DBD31C37D5
:10148000BD4690BD80B485B000AF78607B685B6876
:10149000FB607B6800225A607B6801229A607B684F
:1014A0005B6843F008027B685A607B68FA685A60A0
:1014B0001437BD465DF8047B704700BF80B483B02D
:1014C00000AF7860084611461A460346FB700B468B
:1014D000BB7013467B70FB78002B2FD07B78002BE2
:1014E0000AD07B68DB6CFA780832012101FA02F23B
:1014F0001A437B68DA640AE07B68DB6CFA780832AE
:10150000012101FA02F2D2431A407B68DA64BB7807
:10151000012B09D17B68DB6CFA78012101FA02F218
:101520001A437B68DA6409E07B68DB6CFA78012196
:1015300001FA02F2D2431A407B68DA640C37BD46E6
:101540005DF8047B704700BF80B483B000AF786063
:101550000B46FB701346BB70BB78002B09D07B6831
:101560001B6DFA78012101FA02F21A437B681A65B1
:1015700009E07B681B6DFA78012101FA02F2D2437F
:101580001A407B681A650C37BD465DF8047B7047CE
:1015900080B400AF074BD3F8883003F08073002B82
:1015A00014BF01230023DBB21846BD465DF8047B5F
:1015B000704700BF00C00F4080B400AF074BD3F8A6
:1015C000883003F08063002B14BF01230023DBB2BB
:1015D0001846BD465DF8047B704700BF00C00F4051
:1015E00080B400AF074BD3F8883003F00073002BB2
:1015F00014BF01230023DBB21846BD465DF8047B0F
:10160000704700BF00C00F4080B400AF054A054BD3
:10161000D3F8A03143F02003C2F8A031BD465DF8F5
:10162000047B704700C00F4080B400AF074BD3F875
:10163000A03103F04003002B14BF01230023DBB2D1
:101640001846BD465DF8047B704700BF00C00F40E0
:1016500080B483B000AF0346FB71044AFB79C2F843
:101660000C310C37BD465DF8047B704700C00F405D
:1016700080B500AFFFF7B4FF0346002B03D0002076
:10168000022100F079F8FFF783FF0346002B03D017
:101690000020012100F070F8FFF7C6FF034683F039
:1016A0000103DBB2002B01D0FFF7AEFF00BFFFF755
:1016B000BBFF034683F00103DBB2002BF7D1002010
:1016C00000F0A8F80120FFF7C3FF00200F2100223F
:1016D00000F074F80020012100F02CF8032000F045
:1016E00099F800BFFFF768FF034683F00103DBB200
:1016F000002BF7D10020022100F01CF880BD00BFB4
:1017000080B483B000AF0346FB71094AFB795B01EB
:1017100013448833AA225A60054AFB795B011344BB
:10172000883355225A600C37BD465DF8047B7047FC
:1017300000C00F4080B584B000AF03463960FB7134
:101740000C4AFB7904335B0113441B68FB60FA68A5
:101750003B681343FB60074AFB7904335B01134486
:10176000FA681A60FB791846FFF7CAFF1037BD46C2
:1017700080BD00BF00C00F4080B584B000AF0346FD
:101780003960FB710C4AFB7904335B0113441B681D
:10179000FB603B68DB43FA681340FB60064AFB7959
:1017A00004335B011344FA681A60FB791846FFF7AB
:1017B000A7FF1037BD4680BD00C00F4080B586B082
:1017C00000AF0346B9607A60FB73FB7B002B05D149
:1017D0007B681A04BB6813437B6104E07B685A0191
:1017E000BB6813437B610A4AFB7B04335B011344F0
:1017F0007A695A60064AFB7B04335B011344012279
:101800001A60FB7B1846FFF77BFF1837BD4680BD8B
:1018100000C00F4080B483B000AF7860044A7B689A
:10182000C2F804310C37BD465DF8047B704700BF39
:1018300000C00F40FFF7D0B8B0FA80F39840C3F172
:101840001F0300F1800201EBC35101EB22201306BC
:1018500008BF20F001007047C0F3C75370B4FBB15C
:10186000FF2B1DD0C1F3C755D5B1FF2D18D00C02E9
:10187000020242F0004244F00044A242A3EB0503FE
:1018800032BF7D337E335208FD2B81EA000124D91B
:10189000002B01F000401EDB70BC40F0FF407047A1
:1018A0004300B3F17F4F15D84C00B4F17F4F11D8EE
:1018B00040EA0102520012F07F4F0BD0414013F07A
:1018C0007F4F01F0004006D0B4F17F4FE4D1B3F177
:1018D0007F4F00D10F4870BC7047240AB2FBF4F66A
:1018E00004FB16221202B2FBF4F504FB15221202CD
:1018F000B2FBF4F0C90F04FB102206EBC131DB058B
:1019000005EB012503EB0525A4EB4202284400EB7F
:10191000D270E0E70000C07F90EA0102034666D47F
:10192000884230B425D3DA0DD0B2FF28A2EBD155CE
:1019300029D085422DD0090241F000411B0243F01D
:10194000004321FA05F01B1A2AD45800002839DB7D
:1019500023D030BCB0FA80F1931E5B1ADB05D205B0
:1019600093EA020F5ABF884003EB102002F00040B8
:10197000704702F1004253405140DA0DD0B2FF28C7
:10198000A2EBD155D5D15A0200D11DB930BC1C48AB
:10199000704715B130BC18467047002030BC704706
:1019A00003F100408030D20502EB10230206F1D192
:1019B000C5F1200511FA05F20CBF23F0010303F174
:1019C000FF33E7E78030D40504EB2023000612D173
:1019D00002F0FE02C5F12005A9400CBF23F001036F
:1019E00003F1FF33002AD5D103F00043D2E701F120
:1019F000004100F007B812F0FE02EBD0CAE700BFCA
:101A00000000C07F90EA010203464ED4884238BFEE
:101A100053404FEAD35038BF5140C2B2FF2A37D0AB
:101A200030B4A0EBD15494421BD0090241F00041E4
:101A30001B0243F0004321FA04F2D31816D203F13B
:101A400000428032C00500EB1223120606D1C4F119
:101A5000200411FA04F201D123F00103184630BC2E
:101A60007047002CFAD103F00043F7E7421C03F55E
:101A70008075D00500EB5523ED050ED1C4F120048F
:101A8000A140D2B201D123F00103FF2AE6D1E6E75B
:101A90005A020CBF184607487047D2B2FF2ADDD160
:101AA000C4F12004A140EED0D9E701F10041FFF7D5
:101AB00033BF00BF0000C07F0202C30D42F00040F0
:101AC000D3F19E0201D4D0407047FE2B04D9B0F16F
:101AD000004F01D0002070471B0A581E704700BFFE
:101AE00010F0004104D0404201F18041FFF7A4BE54
:101AF00008B9002070474FF08041FFF79DBE00BF3E
:101B000018B14FF08041FFF797BE0020704700BF2B
:101B1000000A0000080A0000200A0000280A00004D
:101B2000B0080000B8090000D00A00000109000058
:101B300009090000210900004109000049090000CD
:101B400051090000710900007909000081090000B5
:101B500089090000D90900001A080000780800006F
:101B6000220800008008000088080000A08601000C
:101B7000020000000200000002000000030000005C
:101B8000040000000500000000000000000000004C
:101B9000000000000200000002000000020000003F
:101BA0000000000000000000000000000000000035
:101BB0000100000002000000000000000000000022
:101BC00000000000130000001200000011000000DF
:101BD00000000000000000000000000016000000EF
:101BE00015000000140000000000000000000000CC
:101BF0000000000096000000B40000001E0000007D
:081C00000000A0410000A04318
:00000001FF
